:1000000000800020ED21000023220000150D0000DB
:10001000270D0000390D00004B0D000021220000CB
:100020002122000021220000212200002D220000B8
:100030002F2200002122000031220000191A0000A6
:1000400045300000591C000039220000CD2100007D
:100050003D2200003F220000412200005520000008
:100060004522000047220000492200007D1C0000BC
:100070004D2200004F2200005122000069200000A4
:1000800055220000610B0000592200005B22000095
:100090005D2200005F220000612200006322000058
:1000A000652200006722000069220000B90B0000F1
:1000B0006D2200006F22000071220000A11E0000CE
:1000C0007522000077220000792200007B220000C8
:1000D0007D2200007F22000081220000000000003D
:1000E0000000000000000000000000000000000010
:1000F0000000000000000000000000000000000000
:1001000010B5054C237833B9044B13B10448AFF351
:1001100000800123237010BD0004002000000000B7
:10012000D455000008B5064B1BB106480649AFF38D
:1001300000800648036813B1054B03B1984708BD1A
:1001400000000000D4550000040400200803002033
:1001500000000000154B002B08BF134B9D46A3F574
:10016000803A00218B460F461348144A121A04F0B5
:1001700098FA0F4B002B00D098470E4B002B00D065
:1001800098470020002104000D000D48002802D0EF
:100190000C48AFF3008004F055FA2000290000F06D
:1001A00087FE04F03BFA00BF00000800008000203A
:1001B000000000000000000000040020100E0020DD
:1001C000000000000000000070B5104916460B2228
:1001D0001C4604F076FA28B9B4B900F045FB00F0EB
:1001E000AFFF11E00A4D2868C0F30A031BB94FF4B2
:1001F000006101F0FAFD22462868314601F00CFE4C
:100200002B681C442C6070BD204670BD604F000000
:100210000000002070B50446D42001F0ADFC054676
:10022000D42001F0F1FC2DB1294B1A7B4B2A17D1B8
:1002300000221A734FF4E13001F045FFA22001F0D3
:100240009BFC00F09FF9234B4FF4584222481A6060
:1002500000F06EF80028F6D04FF47A7001F017FC29
:100260001E4D00F0DFFF1E4B2A681E469A4203D146
:1002700005F11C0000F09CFB00F0A8FB2A68174861
:10028000B2420ED1012280F82620002280F82720D9
:1002900080F8282044600461083000F07FFF00F0FF
:1002A000ABFF104A4FF4584393601B6883F30888F0
:1002B00083F30988BFF34F8F4DF604031B689847FB
:1002C0004FF47A7001F0E3FBBDE8704001F002BD2D
:1002D0000011084000000020C9010000AC0A002005
:1002E000544F4F4200ED00E008B50146024800F0CF
:1002F00004FF002008BD00BFA004002038B504465C
:10030000064800F00DFF051E05DA0120013C01F052
:10031000BEFB002CF4DC284638BD00BFA004002042
:1003200008B50A20FFF7EAFF0028FADA08BD000046
:100330002DE9F04F99B0804601F0BCFE8D4D0024B0
:1003400028608D4801F0A0FEA146FFF7E9FF264690
:100350008DF82040002501202F4603904FF4FA60CD
:10036000FFF7CCFF002847DB022810D005DC01286E
:1003700040F0F6804FF0800B0BE0042837D01828AF
:1003800040F0EE804FF4FA60FFF7B8FFE8E04FF47A
:10039000806B7A49012208708A460BF10400904272
:1003A0000DDB4FF4FA6001910292FFF7A7FF0028DE
:1003B0000199029A20DB0AF802000132EDE791F878
:1003C00002E048786FEA0E0E5FFA8EF188426B4ABF
:1003D00012D1D01C0BF10201029200F084FE029AAD
:1003E000014602F1030E38B9BBF1000F32D10620ED
:1003F00001F066FE002589E06FB10135042D0AD9B0
:10040000182001F05DFE182001F05AFE4FF47A70BA
:1004100001F042FB18E0432001F052FE9EE7A345A5
:10042000B4BF5D462546B8F1000F05D008A8314697
:1004300072462B46C0478146A9455FD0182001F07F
:100440003FFE182001F03CFE4A4A106801F01CFEF5
:1004500030468CE05078FAB2904204D015200191D9
:1004600001F02EFE50E0002FD9D103231AF803200B
:100470000AB100230CE00133072BF7D1062001F06D
:100480001FFE012542E0402B09D008A95A54013330
:100490000AEB0302D2780EEB0301002AF3D118AA6B
:1004A0001A44002302F8403CCA185278202A05D08A
:1004B000102B03D004A8C2540133F5E718AA002575
:1004C000134404A8294603F8505C00F0DDFE0646FC
:1004D0000446B8F1000F04D008A831462A462B463E
:1004E000C047062001F0ECFD039B002B14BF432006
:1004F000152001F0E5FD0020039004E00620C9EB83
:10050000040401F0DDFD0137002527E71C490868D8
:1005100082689368013B002B936012DA9769BB42B3
:100520000BDB136843221A70086882681368197815
:100530000A2903D0013313600BE0432104F0D8F8FB
:1005400007E0136843221A700B689B681A6801322F
:100550001A60002D7FF478AF432001F0B1FDF9E679
:10056000182001F0ADFD182001F0AAFD002019B0FF
:10057000BDE8F08F9C040020E9020000A8040020E0
:100580003001002002480349802200F0AFBD00BFC7
:10059000A00400201C04002008B50021ED2001F07B
:1005A00005FB062001F0A6FDBDE80840ED20012175
:1005B00001F0FCBA10B50021ED2001F0F7FA05209A
:1005C00001F098FD002001F095FD01210446ED2089
:1005D00001F0ECFA204610BD38B5104B104A1B78DC
:1005E00000EB83000F4B52F8205053F8203098B2A4
:1005F000ED1A01F04CFAFFF7DDFF0446E3070AD5D8
:100600004DB1FFF7D7FF044601F074FB012001F064
:100610003EFA013DF2E7204638BD00BF040000204D
:100620006C4F0000CC4F000008B5FFF7B5FF00216C
:10063000ED2001F0BBFA012001F05CFD002001F08B
:1006400059FDBDE80840ED20012101F0AFBA0000DE
:1006500008B5A520012101F0A9FAEA20002101F046
:10066000F1FAEC20002101F0EDFA0121ED2001F07A
:10067000E9FAEB2001F0D2FAE820012101F096FA24
:100680000A2001F001FA064B01221A70054B1B7873
:10069000052B03D1BDE80840FFF7C6BF08BD00BF6A
:1006A000AD0800200400002010B5044618B1BDE8D4
:1006B0001040FFF7CDBF0C4B21461870E82001F029
:1006C00075FAEA2001F0A0FAEC2001F09DFAED2085
:1006D00001F09AFAEB2001F097FA2146A520BDE837
:1006E000104001F063BA00BFAD080020134B70B595
:1006F0001B7806460D4614460BB9FFF7A9FF0020EC
:10070000FFF76AFF0021ED2001F050FA032001F00D
:10071000F1FCC4F3074001F0EDFCC4F3072001F045
:10072000E9FCE0B201F0E6FC2946304601F0EEFCBF
:10073000ED20012101F03AFA284670BDAD080020F5
:100740002DE9F843264B05461B780E4614468F18B4
:100750003BB9FFF77DFF234B1B7813B90A2001F04B
:1007600096F9BC4238D20020FFF736FFFFF714FF9E
:100770000021ED2001F01AFA44F0FF09022001F0F7
:10078000B9FC09F10109C4F3074001F0B3FCB94514
:1007900028BFB946C4F30720C4EB090801F0AAFC3E
:1007A000E0B201F0A7FC2846414601F0C1FCED2073
:1007B000012101F0FBF90021ED2001F0F7F90420FF
:1007C00001F098FCED20012101F0F0F901204544F1
:1007D000FFF702FF4C46C4E73046BDE8F88300BF90
:1007E000AD080020040000201D4B70B51B780546A5
:1007F0000C4646183BB9FFF72BFF1A4B1B7813B971
:100800000A2001F044F945EA0403C3F30B0323BBB8
:10081000B44220D20020FFF7DFFEFFF7BDFE00212B
:10082000ED2001F0C3F9202001F064FCC4F307407F
:1008300001F060FCC4F3072001F05CFCE0B201F0C1
:1008400059FCED20012101F0B1F90220FFF7C4FEAF
:1008500004F58054DCE7284670BD4FF0FF3070BDD2
:10086000AD0800200400002038B50020FFF71CFF71
:1008700001F070FC142001F00AF9FFF7E9FE0520F1
:1008800001F005F90021ED2001F090F99F2001F021
:1008900031FC002001F02EFC0446002001F02AFC6F
:1008A0000546002001F026FC622C0ED005D81F2C36
:1008B00016D0202C19D1032213E0C22C07D0EF2C24
:1008C00013D1134B00241C7011E0012209E0252DE7
:1008D0000F4B03D1332801D1022203E0042201E0AF
:1008E00005220B4B1A70002401E04FF0FF34ED207D
:1008F000012101F05BF9002CB7D1054B1B78052BCA
:1009000001D1FFF791FE034B01221A7038BD00BFE1
:1009100004000020AD080020204A10B5117801F035
:10092000020303F0FF0033B11D4B01241C740024AB
:100930005C74147A5C7301F0080303F0FF0143B1A7
:10094000174B01219973197360B1127A4A405A7397
:1009500008E01448012203F0DFF8012111480A469B
:1009600003F0DAF8104B0F4C18695A695969821A6A
:100970000A445A6120460A4903F0FCF82046012146
:1009800003F0A8F8636A4FF0006243F00303636268
:10099000064BC3F880211A6010BD00BF060000207E
:1009A00058000020006008400011084000E100E00D
:1009B00040B1438833B10268034B1A6042685A6001
:1009C00002891A81704700BF0600002070B5504DA3
:1009D0002B78013BDBB20D2B00F29580012404FA49
:1009E00003F242F6D5231340002B00F08C804948D7
:1009F000022102F0F7F94848214602F08DF84748F5
:100A0000214602F089F84648214602F085F82B7805
:100A100013EA04066ED04348214602F07DF84248AE
:100A2000214602F079F84148214602F075F8404825
:100A3000082101F07DFF3E48214602F06DF83D4857
:100A40003D4901F0D9FC002123460A46394801F00E
:100A50009DFC38480A21002201F0B2FC0020024629
:100A60004FF46C1103F086F9224620464FF46C11C6
:100A700003F080F9FFF750FF3048214602F0E8FE0E
:100A80002F4E2A792F48F273C27302743274EA88A7
:100A90000621427402F092FD0721304602F08EFDDD
:100AA000294802F0F3FC2948002102F025FE2848DD
:100AB000214602F021FE2748022102F01DFE69882E
:100AC000002002F05FFC0020022102F0B9FC224B62
:100AD00004225C615A612A78520709D5DA6C42F423
:100AE0000032DA641D4B4FF40032C3F880211A60E3
:100AF00000260AE01B07FBD5FFF70EFFD720214693
:100B000001F054F801E04FF0FF36304670BD00BFF1
:100B100006000020020006001081020000430400CD
:100B2000000606000092020000A2020000F202008D
:100B300030041000001400402C50000078500000D9
:100B400084000020240000204450000010000020F9
:100B5000440000207000002000C0084000E100E0D8
:100B6000104B10B51A6C91031AD55C6B620706D056
:100B70000D4B1B681BB10D4A1120116898472307C4
:100B800006D40B4B1B681BB10A4A11201168984709
:100B9000044B4FF400325A64DA6C22F40032DA6407
:100BA00010BD00BF00C00840B8080020C0080020E9
:100BB000B4080020B008002038B5154B9C6901F03E
:100BC00021FA18B11B20214601F022FAA20706D50E
:100BD000104B0F4A5969126901320A445A61E307FE
:100BE00006D50C4B0A4A59691269D2430A445A6124
:100BF000094D2B6843B106484FF6FF7103F084F8A6
:100C00002B68984700232B60014B1C6238BD00BF46
:100C10000060084000110840BC0800200368234A17
:100C200010B513604368224A816913608368214AC2
:100C30001360C368204A13600369204A1360436944
:100C40001F4AC06913601F4B19601F491C4608608A
:100C500010461E4B1B78002BFBD01D4A1D4B916A82
:100C6000090C090429B11A7F42F002021A7722689E
:100C700008E0916A11F47F4F06D0197F41F004011A
:100C80001977926B1A620EE0916A11F0FF0105D09C
:100C9000197F41F008011977526BF3E71A7F42F090
:100CA00001021A77196202685A62FEE79C0A002064
:100CB0008C0A0020A80A0020900A0020A00A002028
:100CC000940A0020980A0020A40A0020A400002012
:100CD00000ED00E000110840044608B5024800F0AD
:100CE00009FB2046FFF79AFFB8500000044608B5FC
:100CF000024800F0FFFA2046FFF790FFD5500000B1
:100D0000044608B5024800F0F5FA2046FFF786FFD2
:100D1000EC5000001EF0040F0CBFEFF30880EFF35F
:100D20000980FFF77BBF1EF0040F0CBFEFF30880B4
:100D3000EFF30980FFF7D0BF1EF0040F0CBFEFF3F5
:100D40000880EFF30980FFF7D1BF1EF0040F0CBF3E
:100D5000EFF30880EFF30980FFF7D2BF38B5002525
:100D600000240022214628461346013402F0B8FA36
:100D7000102CF6D10135EDB2062DF1D1D520002190
:100D800000F060FFE820002100F05CFFC820002197
:100D900000F058FFA320012100F054FFD6200321CA
:100DA000012200F0DBFEC1200B21012200F0D6FE63
:100DB0000122C0200B2100F0D1FEEA20002100F02A
:100DC00041FFEC20002100F03DFF0121ED2000F06B
:100DD00039FFEB2000F022FFC220002100F032FF9B
:100DE000C420002100F02EFF0121C52000F02AFFC1
:100DF000C32000F013FFA82000F010FFAA2000F08D
:100E00000DFFBB2000F00AFFF32000F007FFF420E5
:100E100000F004FFF52000F001FFCB20012100F0DD
:100E200011FFBD20002100F00DFF0021BE2000F0C9
:100E300009FFCC2000F0F2FEA920002100F002FF03
:100E4000A420002100F0FEFECA20002100F0FAFEDE
:100E50000021D72000F0F6FEC62000F0DFFEC720FC
:100E600000F0DCFECD2000F0D9FECE2000F0D6FE52
:100E7000CF2000F0D3FE0021A52000F0E3FEA0204B
:100E800000F0CCFEA1200321012200F067FE012228
:100E9000D420032100F062FEE920012100F0C8FE09
:100EA000BDE83840A2200321012200F057BE000017
:100EB00037B51A4B01A81C6802F0AEFF240E102CA7
:100EC0000AD19DF80530032B06D1154B1A6822F084
:100ED000500242F010021A60124B5C6802F086FF6A
:100EE000054602F069FF032001F000FF01F074F8ED
:100EF00000F002FF00F0D4FEFFF730FF204600F0C4
:100F0000E1FF00F0CCFD01F091F800F02FFF284642
:100F10002146FFF77FF9002003B030BDFC81E00FD0
:100F2000C0800C4000A00C40F0B50C4C2378202B66
:100F300011D00B4D0B4F2E780B4D1E4406F01F06A3
:100F40002E700C256E430133BD19B9552370A8606E
:100F50006A600020F0BD0120F0BD00BFC508002080
:100F6000C4080020C8080020480A002040B1837B44
:100F7000013BDBB2012B03D8024A0123C373137078
:100F8000704700BFC608002010B5044600F070FD91
:100F90002368C3F101030344606898422CBF00201A
:100FA000012010BD10B50D4C236813B90C4A136015
:100FB00010BD00F05DFD236893E806000A44121A94
:100FC0009B683BB193E812002144091A8A4228BF6A
:100FD0000A46F5E7024B1044186010BD4C0A002089
:100FE000500A00200148FFF7C1BF00BFA800002041
:100FF000F8B5038805462BB1592B09D0002303808F
:101000000320F8BD1E4A136059232B800120F8BD30
:10101000872920D08229F7D1194F00263C68002C5F
:10102000F2D02046FFF7B0FF90B1E0688821224659
:10103000FFF77AFF50B9E060A3680EB1B36000E03B
:101040003B600023A360FFF7ADFFE5E7FFF7CAFFB2
:101050002646A468E3E70A490B680BB90B60D3E79F
:10106000D868904201D19B68F7E70B609968002926
:10107000CAD0C86890420ABF89680B469960F5E7F4
:101080004C0A0020024B1868003018BF012070473E
:101090004C0A0020024B186808B1024B18687047D0
:1010A0004C0A0020500A002081EA0020082310F496
:1010B000004F4FEA40001CBF80F4815080F00100D7
:1010C000013B80B2F3D1704770B506460D4600244F
:1010D000AC4206DA305D1146FFF7E6FF0134024606
:1010E000F6E7104670BD0022FFF7EEBF0023013A7D
:1010F000016082808371C371704710B58379C479B0
:1011000082881C1B1440944208D00268D154837911
:101110000279013313408371012010BD002010BDFE
:10112000C37981798288C91A114206D00168C95CE5
:1011300001331A40C271084670474FF0FF307047C4
:1011400008B500214FF40030FFF74EFBBDE8084022
:101150004FF458404FF4C8310022FFF7F1BA10B5F0
:10116000C0B0FFF781FB4FF458404FF4C83100F096
:101170003CFE002422464FF480716846FFF7B6FA21
:1011800004F5584069464FF4807204F5807400F00D
:1011900043FEB4F5C83FEDD140B010BD10B5C37BE0
:1011A000044693B1037B5BB94FF4C8314FF4584008
:1011B00000F01BFE94E806004FF4584000F02CFEAF
:1011C0000023E3732374A37312E0027C032A08D97B
:1011D000827B022A0CD0022282730374FFF7BFFFC6
:1011E00006E0836813F030031ABF013202740374FF
:1011F0004FF4584010BD000010B5084B084C4FF498
:1012000000614FF43040236000F0EFFD21464FF4C1
:1012100030402C22BDE8104000F0FEBD544F4F423C
:10122000AC0A00204FF4304001492C2200F0CCBD24
:10123000AC0A0020134BF0B51E68054600202F466F
:1012400015F8013BF418647814F0440F01D199B9F2
:10125000F0BD14F0040F02D0A3F1300407E004F055
:101260000304022C0CBFA3F15704A3F137049442EA
:10127000EDD202FB0040E2E7002B18BF3B460B60BB
:10128000F0BD00BFCC0000200346B8B1184613F8EB
:10129000012B202AFAD0302A0DD14378782B0AD19D
:1012A000074A8378126813445B7813F0440F02D026
:1012B0000230102200E00A22FFF7BCBF704700BFD7
:1012C000CC00002008B51AB10846114600F023FCF6
:1012D000002008BD0FB407B504AA52F8041B044847
:1012E000019200F02DF803B05DF804EB04B07047F4
:1012F000B800002010B5044603F0DBF90146204693
:1013000000F009FC0A2000F009FC002010BD0000DC
:1013100038B505460C46102C07D92B686868074974
:101320001022984748B9103CF5E72CB12B68686843
:1013300002492246984738BD204638BD4851000032
:101340002DE9F04F95B0074605910D924FF000083A
:10135000059C2378002B00F0578323461C4613F886
:10136000012B1AB90598844203D10CE0252AF5D146
:10137000F8E705993B68651A78682A469847002877
:1013800040F02583A8442378002B00F03D83637848
:10139000002B00F0398301340026224614F8013B6B
:1013A0002B2B11D006D8202B11D0232B12D146F095
:1013B0000806F2E72D2B04D0302B0BD146F0100697
:1013C000EBE746F00106E8E746F00606E5E746F0FB
:1013D0000206E2E7A3F13101C9B2082911D8134688
:1013E0004FF0000C1A4613F8011BA1F13000C0B2F7
:1013F000092815D84FF00A0A0AFB0C1CACF1300C76
:10140000F0E72A2B0AD10D9B0132191D1B680D91A3
:10141000002BB8BF46F001069C4601E04FF0000CDF
:1014200013782E2B21D15178531CA1F13000C0B27A
:10143000092811D819464FF000090A780B46A2F185
:101440003000C0B2092801F1010111D80A2303FBC1
:101450000929A9F13009F0E72A2907D1931C0D9A2F
:10146000111D0D91D2F8009002E013464FF0FF39A4
:101470001A786C2A09D15A786C2A02D146F0800673
:101480000AE0013346F060060BE0682A09D15A7879
:10149000682A03D146F02006023302E0013346F009
:1014A00040061A78642A3CD01FD8462A48D00DD866
:1014B000252A5AD003D8002A00F0A68257E0412AF4
:1014C0004AD0452A08BF46F4424650E0582A31D057
:1014D00004D8472A08BF46F4A13648E0612A38D02C
:1014E000632A08BF46F4A06641E06E2A3AD007D8C6
:1014F000662A22D027D3672A28D0692A11D036E05D
:10150000732A2CD006D86F2A11D0702A08BF46F44F
:1015100040762CE0752A07D0782A08BF46F4C856D2
:1015200025E046F4245622E046F410661FE046F417
:1015300088561CE046F4B24619E046F4007616E000
:1015400046F4844613E046F4024610E046F4813641
:101550000DE046F4C1360AE046F4E13607E046F411
:10156000806604E046F4E06601E046F4C0660133BC
:10157000059306F4E063B3F5806F00F0A58114D8FD
:10158000B3F5807F28D0B3F5407F7FF4E1AE0D9BAB
:10159000A649A7481A1D16F4804F0D9218BF084699
:1015A0001A680DF14B010023B6E1B3F5C06F08D006
:1015B000B3F5E06F00F02182B3F5A06F7FF4C8AE01
:1015C000EFE13B6878689B4901229847002840F08A
:1015D000FE8108F10108BBE6B9F1000FACBF26F0AF
:1015E00010064FF0010916F40054049406F0E003CD
:1015F00037D0402B17D008D8DBB1202B2AD10D9B38
:101600001A1D0D9293F9002017E0602B11D0802B4A
:1016100020D10D9B073323F0070303F108020D923D
:10162000D3E900230AE00D9B1A1D0D92B3F90020A7
:1016300003E00D9B1A1D0D921A68D317002A73F14F
:10164000000009DA504263EB4301CDE902014FF09B
:10165000010A34E000220023CDE902234FF0000A02
:101660002DE0402B16D007D8D3B1202B21D10D9BD4
:101670001A1D0D92187811E0602B11D0802B18D113
:101680000D9B073323F0070303F108020D92D3E902
:1016900000010BE00D9B1A1D18880D92002105E03A
:1016A0000D9B1A1D0D921B681846F7E7CDE9020144
:1016B000D4E700220023CDE902234FF0000A06F40C
:1016C000C053B3F5805F0BD0B3F5C05F3CD0B3F52A
:1016D000006F5AD10DF14E040C94DDE9024504E08F
:1016E0000DF14E01DDE902231CE054EA0501DDF8AD
:1016F00030B045D0204629460A220023CDF804C048
:1017000002F0ACFC0C98303200F8012D0C90294608
:1017100020460A22002302F0A1FCDDF804C00446A2
:101720000D46E2E752EA03008B4629D002F007009B
:10173000D408303001F8010D44EA4370DC0806900B
:101740000794DDE90623EDE7384B394816F4804F5E
:101750000DF14E0118BF1846DDE9022352EA0304D9
:101760008B460DD002F00F04045D01F8014D140901
:1017700044EA037408941C090994DDE90823EDE7A1
:101780000DF14E05CBEB050502E00DF14E0B0025EA
:1017900041F60803A94506EA030341F20802CCBF5B
:1017A000C5EB09094FF00009934204D1B9F1000FCC
:1017B00008BF4FF0010941F60802934209EB050109
:1017C0000CD1DDE90223134308D01B4B1B4A16F44E
:1017D000804F4FF0020418BF1A4601E00024224651
:1017E000049890B1BAF1000F0DD106F00603022B58
:1017F00006D0062B124B08BF012408BF1A4604E08E
:101800000124104A01E0104A012401EB040AD445E6
:101810008CBFCAEB0C0A4FF0000A16F001030293CA
:101820001DD1F10612D5D1449A4618E0115100009D
:101830002251000046510000365100003351000093
:101840003D5100003B5100003951000038465146DF
:101850000192FFF75DFD019A002840F0B8803CB18D
:1018600011463B68786822469847002840F0AF80D0
:101870004E46102E3B6808D9786865491022984773
:10188000002840F0A480103EF3E736B17868604944
:1018900032469847002840F09A803B68786859465D
:1018A0002A469847002840F09280A8444444A14426
:1018B000029C34B138465146FFF72AFD002840F01B
:1018C000868009EB0A0843E50D9B1D681A1D0D92E1
:1018D0003DB12B461C4622780133002AFAD1641B05
:1018E00001E04C4D0624B9F1000F02DB4C45A8BFC6
:1018F0004C46A4458CBFC4EB0C0A4FF0000A16F00E
:10190000010605D138465146FFF702FD00285ED199
:101910003B687868294638E052EA03040D460DD04A
:1019200002F00F04045D01F8014D140944EA037448
:101930000A941C090B94DDE90A23EDE70DF14B0431
:10194000641A04D130234D1E01F8013C0124782390
:101950000334A44505F8013C4FF0300305F8023C80
:1019600088BFC4EB0C0A4FF0230398BF4FF0000A66
:1019700016F0010605F8033C04D138465146FFF73E
:10198000C7FC20BB3B687868E91E22469847F0B93F
:10199000A044002E2FD038465146FFF7B9FC50B373
:1019A00015E00D9BBCF1010F03F104021B688CBF15
:1019B0000CF1FF3A4FF0000A16F001060D928DF877
:1019C000383008D138465146FFF7A2FC10B14FF02D
:1019D000FF301AE0D0443B6878680EA9012298478E
:1019E0000028F4D12EB138465146FFF791FC00286B
:1019F000EDD10AF1010AD044AAE40D9B1A1D1B681F
:101A00000D92C3F80080A3E4404615B0BDE8F08F06
:101A1000585100003F510000104B10B51B68104B8F
:101A2000104C4FF000725A60236801332360FFF7B7
:101A300029FB30B1FFF72EFB2368984201D8FFF74E
:101A4000D1FA094B1A68013A1A6032B9074A11688B
:101A5000013111604FF47A721A6010BD10E000E09D
:101A600000ED00E0540A0020C0000020580A0020C9
:101A7000014B1868704700BF540A002010F1FF3076
:101A800001D300BFFAE770474000FFF7F7BF40F609
:101A9000B7335843FFF7F2BF80B2FFF7F8BFF8B58E
:101AA00000214FF6FF7000F05BFE0546032001F0B9
:101AB00057FA982D044615D82646013C03202146A6
:101AC00001F06CFA4FF6FF70002100F049FE9828F3
:101AD0002F460546F0D9A0F19903C7F19907BB42FB
:101AE00088BF3446992D14D0264601340320214660
:101AF00001F054FA4FF6FF70002100F031FE9928F2
:101B000001D90546F0E7C0F19900993DA84288BF88
:101B100034462046F8BD00F0D4BA000013B50D4B92
:101B20008DF807001A781C4662B900230DF10700F2
:101B30000121237000F0C5FA012809D0054B0122CC
:101B40001A7005E00448012100F0BBFA0128ECD02E
:101B500002B010BD5C0A00206851000030B5044698
:101B600000090D460A38134604F00F012A46C0B298
:101B7000BDE8304001F0B4BB38B504090A3CE4B21A
:101B8000052C00F00F0504D9064840F2C71100F0FB
:101B900073FC24235C43044B1859E84000F0010017
:101BA00038BD00BF6A5100001C60004038B5040910
:101BB0000A3C00F00F00E4B2C5B289B1052C04D98B
:101BC0000F4840F20A2100F057FC012000FA05F509
:101BD0002423634303F1804303F5C0431D6138BDF3
:101BE000052C04D906484FF4EF7100F045FC0120A4
:101BF00000FA05F524235C43024B1D5138BD00BF9C
:101C00006A51000014600040014600090A380022B1
:101C1000C0B201F00F01134601F062BB014600099A
:101C20000A38C0B201F00F010122002301F058BBB5
:101C3000024600090A380B46C0B202F00F01082222
:101C400001F04EBB024600090A380B46C0B202F052
:101C50000F01042201F044BB074BD3F81011D3F855
:101C600014210A4022F42A5222F02A025204520C71
:101C7000C3F81C21704700BF00600040074BD3F839
:101C80001011D3F814210A4022F4AA4222F055027E
:101C90001204120CC3F81C21704700BF0060004002
:101CA00008B50948012100F037FF0848012100F07C
:101CB00033FF074B4FF40062C3F880211A60022201
:101CC000C3F880211A6008BD1081020000D2020012
:101CD00000E100E0BFF34F8F044A054BD16801F4E7
:101CE000E0610B43D360BFF34F8FFEE700ED00E0F0
:101CF0000400FA0502F05AB91FB50C4A01AB10688E
:101D00005168127A03C3012109481A7000F004FFD8
:101D1000012301A88DF806308DF80A308DF80930BE
:101D200002F06AF905B05DF804FB00BF93510000B2
:101D30000043040072B6044B1A68511C1CBF0132E8
:101D40001A601868704700BF780A0020034B1868B3
:101D500018B10138186000B962B67047780A0020DF
:101D6000014B00221A707047E40A002030B587B09A
:101D700001F0FEFD124B134A00241A6001254FF4B6
:101D80004012204603A95C60049205938DF80C4034
:101D90008DF80D5001F092F903238DF804302046A0
:101DA0000223294601AA8DF805308DF806308DF8FA
:101DB00007408DF8084001F0B7F907B030BD00BF0B
:101DC000D80A0020611D000010B5034614460846DD
:101DD000194602F05DFC204610BD10B5144603F014
:101DE000B7F8002808BF204610BDF8B5C1F30A03B4
:101DF00007460D46CE0A03B10136FFF79BFF0024CC
:101E0000B44205D007EBC42003F09AF80134F7E799
:101E1000FFF79CFF2846F8BD00F003032DE9F743C8
:101E200090469A180C4620F0030502F0030722F0B2
:101E30000306D3B1032A05D9C3F10402043E01EB22
:101E4000020903E00027894642463E464FF0FF3133
:101E500001A801911844214602F01AFC284601A964
:101E60000422FFF7BAFF04354C4636B12846214616
:101E70003246FFF7B2FF3444354467B14FF0FF33C9
:101E800021463A4601A8019302F002FC284601A926
:101E90000422FFF7A2FF404603B0BDE8F083000034
:101EA000014B07221A63704700100840034A044B95
:101EB0005B68906803EB1020704700BF001008407B
:101EC0000011084070B52B4D86B001AC06460FCD11
:101ED0000FC42B6828480121236000F01DFE01215A
:101EE00000200A4600F04CFF46F209033340234D20
:101EF00073B9234B1B685BB1224B9A681B699A42EA
:101F000020D26B6803F1FF1303F57F436B6019E088
:101F10004FF40053ADF8083003238DF805308023CB
:101F200003930024012301A88DF814308DF8154087
:101F30008DF8043000F0B4FA104821464FF40072D6
:101F400002F0AFFB0F4C0126E661FFF7AFFF286000
:101F50002663636B4FF000423343636304232363C0
:101F6000636B43F004036363074BC3F880211A607B
:101F700006B070BD9C5100000043040000110840F1
:101F8000000002430010084000E100E01FB50A22F3
:101F900001A8002102F085FB01238DF80D300B4BC9
:101FA00000221A6001A840238DF80B3001F060F97F
:101FB000074B1B6CDB07FBD5064B0021196001208A
:101FC00001F0F2FE05B05DF804FB00BFC0058C43D4
:101FD00000600C4080088C4307B5FFF7D7FF084B23
:101FE000082218680123019001A88DF807308DF8A8
:101FF00005208DF8043001F025F903B05DF804FBED
:10200000B0510000014B1878704700BF680A0020EB
:10201000034B00221A70034B1860034B1960704782
:10202000680A0020640A0020600A002007B5012128
:10203000064800F071FD00238DF80030044B68461F
:10204000019301F0C5F803B05DF804FB0003040040
:10205000000C0020024A01231370024A13627047E9
:10206000690A002000200040054808B503691B06E6
:1020700005D501F095FF034B1B6803B1984708BDD8
:1020800000C400406C0A002072B6084B1A68511C4C
:102090001CBF01321A601B68054A106023B1034A55
:1020A000013B136003B962B6704700BF780A002095
:1020B0006C0A0020014B1868704700BF6C0A0020B2
:1020C000704708467047704772B6044B1A68511C37
:1020D0001CBF01321A601868704700BF780A0020E0
:1020E000034B186818B10138186000B962B6704720
:1020F000780A0020044B58631A699206FCD5024BFB
:10210000D869C0B2704700BF00C0004070B5064635
:102110000D46FFF7D9FF0024AC4205DAFF20FFF798
:10212000E9FF30550134F7E7FFF7DAFF284670BDC5
:1021300070B506460D46FFF7C7FF0024AC4204DA2F
:10214000305DFFF7D7FF0134F8E7FFF7C9FF2846F6
:1021500070BD000070B5164D86B06C460FCD0FC433
:1021600095E8030084E803001248012100F0D4FC44
:102170001148012100F0D0FC104B1A781E46AAB974
:102180000F4D104B01242846694602938DF80E40EE
:1021900001F0BEFE0B236B650B4B53E8002F43E8A9
:1021A000004292F0000FF8D10123337006B070BDE9
:1021B000B45100001081020000020200740A0020E5
:1021C00000C00040C0CF6A00000E0020054808B5DE
:1021D00003691B0605D501F0E3FE034B1B6803B141
:1021E000984708BD00C00040700A0020074880479B
:1021F0000749084A084B9B1A40F30580043BC8581E
:10220000D0503FF7FBAF05480047000071230000A6
:10221000E0550000000000200803002055010000E8
:10222000FEE7FEE7FEE7FEE7FEE7FEE7FEE7FEE786
:10223000FEE7FEE7FEE7FEE7FEE7FEE7FEE7FEE776
:10224000FEE7FEE7FEE7FEE7FEE7FEE7FEE7FEE766
:10225000FEE7FEE7FEE7FEE7FEE7FEE7FEE7FEE756
:10226000FEE7FEE7FEE7FEE7FEE7FEE7FEE7FEE746
:10227000FEE7FEE7FEE7FEE7FEE7FEE7FEE7FEE736
:10228000FEE700BF204AD36A03F47053B3F5805FC2
:1022900035D0B3F5005F04D0B3F5006F04D11B4B0C
:1022A00000E01B4B18687047D36803F4E063B3F594
:1022B000007F16D008D8B3B1B3F5807F1DD1154B80
:1022C000154AD86C154B12E0B3F5806F1AD0B3F5F0
:1022D000A06F04D0B3F5407F0FD11148704711486B
:1022E0007047114870470B4B104AD86C104BB0F137
:1022F000985F34BF104618467047002070474FF46F
:10230000004070470B48704700800C40C800002018
:10231000C4000020B081E00FC0CF6A0040B5640067
:10232000809FD500003FAB01C0D8A70040420F00FE
:10233000804F1200406F400108B5FFF7A3FF074B25
:102340001A685B68C2F382320132B0FBF2F003F02C
:102350000F03D840024B186008BD00BF00800C403E
:10236000080E0020014B1868704700BFC80000200D
:1023700070474FF4004070474FF47A707047000088
:10238000014B1868704700BFC40000200229F8B54F
:1023900004460D4616461F4603D90848E12100F0C1
:1023A0006BF82368FF0007F0080723F008031F43BA
:1023B00046EA05252760E561F8BD00BFE45100004D
:1023C000072A70B504460E46154604D909484FF44D
:1023D000827100F051F80B2E04D9064840F2071123
:1023E00000F04AF8636845EA061523F0F7031D4339
:1023F000656070BDE451000038B51D4B054698423C
:102400000C4608D003F58063984204D019484FF475
:10241000927100F031F863680F2B04D9154840F22F
:10242000271100F029F8627A237A120442EA434223
:102430006368617842EA0363A27A43EA0223E27A9C
:1024400043EA0213227B43EA82032278D20742EA5C
:10245000817213432B602369627B1B0243EA0243B0
:102460006B60237D05F104756D012B6038BD00BFE5
:1024700000100040E451000008B503460A46024837
:102480001946FEF727FFFEE70D520000034B9A6B3B
:10249000D20702D4DA6B1042FCD17047001008401A
:1024A00038B5044618B932488121FFF7E5FFA36823
:1024B000013B7F2B03D92E488321FFF7DDFFE36823
:1024C000062B03D92A488621FFF7D6FF23782BB1A4
:1024D00063781BB926488921FFF7CEFFA388B3F59F
:1024E000405F05D1A37C1BB121488C21FFF7C4FFBD
:1024F000A5686B1EB3F5004F03D31D484621FFF7B7
:10250000BBFFB5FA85F52378EDB2C5F11F0513B110
:10251000184B01221A600120FFF7B8FFA27C164B6E
:10252000A1885A60E26841EA4212617841F00801EC
:102530000A43A17842EA8102617C42EA0112217CCD
:1025400042EA813242EA05254FF0FF321A632278CF
:102550001D6062B11B689B0704D108484FF490715D
:10256000FFF78AFF064A00231360C2F8F43638BD2D
:10257000265200000007024300100840505200009D
:102580000C0002430D4B5B6803F00702052A11D8CB
:10259000012101FA02F212F02C0F07D112F0130FF1
:1025A00008D023F0070343F0040303E023F00703FC
:1025B00043F00503014A5360704700BF00000C4020
:1025C0001E4A1F4B90425B680AD903F00702023A89
:1025D000012A23F0070394BF43F0050343F00403EB
:1025E000184A194902448A4212D803F00702023AF3
:1025F000032A23F0070308D8012101FA02F212F09E
:102600000B0F02D043F0030314E043F0010311E089
:102610000E4A90420ED803F00702023A032A23F032
:10262000070307D8012101FA02F212F00B0F18BFBD
:1026300043F00203024A5360704700BF0048E801BC
:1026400000000C40FFDB0BFFFF23F4000024F4002C
:10265000114B5B6903F4E063B3F5007F19D005D833
:102660007BB1B3F5807F12D10C487047B3F5C06FD2
:102670000BD0B3F5E06F06D0B3F5407F07D1084823
:10268000704708487047084870470848704700205E
:1026900070470748704700BF00800C40C0D8A700B3
:1026A00040420F00809FD500406F4001003FAB01CA
:1026B000C0CF6A00431EB3F5004F10B5044603D3E4
:1026C00004488721FFF7D8FEB4FA84F4E0B2C0F1E1
:1026D0001F0010BD7A520000034B5A6DD20702D47E
:1026E0001A6D1042FCD1704700800C40012810B5D3
:1026F000044604D9184840F27711FFF7BDFE174B86
:102700006200996A21FA02F202F00302022A07D05B
:10271000032A09D0012A15D1BDE81040FFF729BED0
:10272000BDE81040FFF72CBE5A68D20502D41B68E2
:102730005B0003D5FFF700FE800810BDFFF7FCFD2E
:10274000400810BD986A0434A400E04003D0BDE8FE
:102750001040FFF711BE10BD7A52000000800C40FF
:10276000B0F5801F38B504460D4604D3144840F236
:10277000E111FFF781FE042D14D8DFE805F0030511
:1027800007090B00012206E0032204E0002202E018
:10279000022200E004220B4B9A610A4B0822DC6102
:1027A0005A6206E0064840F2FB11FFF765FE002082
:1027B00038BDDA6A5204FCD4024BD86938BD00BF78
:1027C0007A52000000800C4008B5C0F30313013BAF
:1027D000042B46D8DFE803F0090C112D0300244B2D
:1027E0001868C0F38230013008BD214B986801E0C1
:1027F0001F4B586800F00F002BE01E4B98420CD086
:1028000003F5BC2398420DD0A3F5FE2398420CD1CA
:10281000174B986EC0F303101BE0154B986EC0F376
:10282000032016E0124B986E11E0134840F2BE21CF
:102830001AE0124B984208D003F5043398420CD1A9
:102840000B4B186FC0F3011003E0094B186F00F039
:102850000300012303FA00F008BD07484FF4367166
:1028600002E0054840F2DF21FFF706FE012008BD27
:1028700000800C4030240A007A5200004005140009
:1028800000F00F00013808B503283ED8DFE800F05B
:1028900002122232244BDB6A03F47053B3F5805FDB
:1028A0003AD0B3F5005F39D0B3F5006F0CBF042008
:1028B000052008BD1C4B986A00F00300022832D0A6
:1028C000032815D0012827D09B6A13F4803F27D115
:1028D000012008BD144A936A03F00C03082B1DD095
:1028E0000C2B05D0042B17D0936A13F4801FEEE74E
:1028F000062008BD0C4B1B6813F0805312D0B3F1B7
:10290000805F0CBF0820012008BD084840F25551E7
:10291000FFF7B2FD002008BD032008BD022008BD5E
:10292000092008BD072008BD00800C407A52000035
:10293000C0F30313013B70B50C46042B00F2D780A3
:10294000DFE803F0152854A103004C1E072C04D91E
:102950006A4840F20731FFF78FFDFFF713FE684B1F
:102960001A6822F4E03242EA84341C6038E04B1EDC
:10297000B3F5007F04D3614840F21A31FFF77CFDC4
:102980002046FFF797FE5E4B9A6822F00F02104335
:10299000986070BDB1F5007F04D9584840F22231EB
:1029A000FFF76AFDFFF7EEFD5120FFF769FF0428EE
:1029B000544E554D01D0002307E0FFF7D3FC534B95
:1029C000B0FBF4F09842F6D90123336020462B6027
:1029D000FFF770FE4A4B5A6822F00F02104358600E
:1029E000FFF7AAFCBDE87040FFF7EABD484B9842EC
:1029F0001CD003F5BC2398422DD0A3F5FE239842AA
:102A00003DD1B1F5004F04D93C4840F25131FFF7B8
:102A100033FD0420FFF760FE2046FFF74BFE384BE6
:102A20009A6E22F0F00242EA001026E0B1F5004F63
:102A300004D9324840F25F31FFF71EFD0420FFF752
:102A40004BFE2046FFF736FE2D4B9A6E22F4706245
:102A500042EA002011E0082904D9284840F27D31DB
:102A6000FFF70AFD0420FFF737FE2046FFF722FE9E
:102A7000234B9A6E22F003021043986670BD1F48E4
:102A800040F28B3136E0234B984204D003F50433F7
:102A9000984213D027E0082904D9184840F295310C
:102AA000FFF7EAFC4020FFF717FE2046FFF702FE83
:102AB000134B1A6F22F00302104312E0082904D9C5
:102AC0000E484FF46971FFF7D7FC4020FFF704FE72
:102AD0002046FFF7EFFD0A4B1A6F22F0300242EA60
:102AE0000010186770BD054840F2B23102E003489B
:102AF0004FF46E71BDE87040FFF7BEBC7A52000023
:102B000000800C4078009043A00090430048E8010A
:102B100030240A0040051400C0F30323013B70B5C4
:102B200005460E46052B24D8DFE803F02A2D031AAC
:102B30001D205120FFF7A4FE04280ED1FFF712FC40
:102B400004461848FFF740FE174BB4FBF0F09842DC
:102B500003D9164A0123136093620020144C14E039
:102B60000120144C11E01020134C0EE00020134CF7
:102B70000BE0134840F20D41BDE87040FFF77CBC0C
:102B80000020104C01E0104C0020C5F3043508B1C2
:102B9000FFF7A2FD04F1047405EBC405AD002E603F
:102BA00070BD00BF200004000048E8017800904399
:102BB00040800C4058800C4060800C4078800C4075
:102BC0007A52000008800C4044800C4000F47810D9
:102BD000B0F5202F08B547D023D8B0F5802F3DD0D1
:102BE00011D8002862D0B0F5003F71D1FFF74AFB41
:102BF0003B4B1A689B68C2F382320132B0FBF2F0A1
:102C000003F00F0349E0B0F5C02F2BD0B0F5002F33
:102C10005ED10020FFF76AFD314B9B6EC3F30313B7
:102C20003BE0B0F5A01F31D007D8B0F5801F23D00E
:102C3000B0F5901F4CD1012024E0B0F5C01F2ED07C
:102C4000B0F5D01F40D0B0F5B01F41D10120FFF743
:102C50004DFD234B1B6FC3F301131EE0BDE808407D
:102C6000FFF76ABB00200DE00020FFF73FFD1C4B83
:102C70009B6EC3F3032310E00020FFF737FD184BD2
:102C80009B6E08E0BDE80840FFF730BD0120FFF76C
:102C90002DFD134B1B6F03F00303D84008BD1148F3
:102CA000FFF7EEFD07280FD0082809D1FFF7EAFA51
:102CB0000B4B1B68C3F382330133B0FBF3F008BD49
:102CC00009484FF4B07106E0BDE80840FFF7C0BC0A
:102CD000054840F2B741FFF7CFFB002008BD00BF19
:102CE00000800C40040018007A52000070B50546C0
:102CF00005281CD8DFE800F00306090E12161D4B4C
:102D0000DC6A0DE01B4BDC6A0EE01A4BDC6AC4F394
:102D1000074413E0174BDC6A240E0FE0154B1C6BC5
:102D2000E4B20BE0134B1C6BC4F3072406E012481B
:102D30004FF4E761BDE87040FFF79EBB5120FFF7FD
:102D40009FFD0528064601D1FFF71CFC0B4A052E06
:102D5000D36823F4FF6323F0070343EA052545EA1C
:102D60000404D46005D1FFF7E7FABDE87040FFF72F
:102D700027BC70BDB081E00F7A52000000800C408B
:102D800010B505280FD8DFE800F00906181503274D
:102D90001020202313E04020802310E04FF48070A7
:102DA0004FF400730BE00D4840F2F671BDE810409F
:102DB000FFF762BB0120022301E004200823084C36
:102DC00029B1206222B1E26A1342FCD000E0236202
:102DD000BDE8104000F02CBA10BD00BF7A520000D0
:102DE00000800C4038B500F00F056B1E032B00F27D
:102DF000A480DFE803F00249498F0239072927D868
:102E0000DFE801F02A2D041C2626261FFFF7AAFA68
:102E10004D4B98424D4B1A680AD942F0804242F01D
:102E200060021A601B6CDB061CD50122484B03E0D4
:102E300022F0600242F020021A6013E00320012415
:102E400012E0444840F2C151FFF716FB03200AE0AC
:102E5000404840F2C65173E00020042404E0012001
:102E6000032401E00220044601210A46FFF788FFFF
:102E7000FFF788FB354B5C6200F0DAF9FFF75CFA8C
:102E8000BDE83840FFF79CBB0139082920D8DFE8AE
:102E900001F023050C1F1F131F1F25000121002017
:102EA0000A46FFF76DFF02231CE00120014602469F
:102EB000FFF766FF012315E0274B01241C60FFF795
:102EC0003BFA214B98420CD9244B1C609C6208E0D1
:102ED00020484FF4C26133E0002303E000230122C5
:102EE00001E0032300221949022D886A08D120F449
:102EF000803020F00300034343EA02428A6238BD77
:102F0000120520F4801042EA830320F00C001843DD
:102F1000886238BD072906D008290AD10B4B1A68E8
:102F200042F0805203E0094B1A6822F080521A6086
:102F300038BD084840F23B6102E0064840F2726149
:102F4000BDE83840FFF798BA0048E80100800C401F
:102F5000A00090437A5200001008904378009043FC
:102F6000032808B508D0042809D001280BD1094B43
:102F7000186900F07F0008BD064BD86801E0054BDA
:102F80005869C0B208BD044840F63201FFF774FA30
:102F9000002008BD00800C407A520000032810B5C4
:102FA0000C4613D0042820D001282DD17F2904D924
:102FB000194840F65201FFF75FFA184B04F07F04FE
:102FC0001A6922F07F0214431C6110BDFF2904D945
:102FD000114840F65A01FFF74FFA104BE4B2DA6895
:102FE00022F0FF021443DC6010BDFF2904D90A4817
:102FF00040F66201FFF740FA084BE4B25A6922F04A
:10300000FF0214435C6110BD034840F66A01BDE84D
:103010001040FFF731BA00BF7A52000000800C4028
:10302000022838B504460D4604D9044840F6B401D8
:10303000FFF722FA024BE4001D5138BD7A5200001E
:10304000040F90431A4B1B4A41F20C0112682DE900
:10305000F0415F58174000D5FEE7D3F838800226CC
:1030600007EA08050024EDB1EB0718D50121A140BE
:103070000F4B114A9B68116003EB0413DB6873B1BB
:10308000197AD3F800C081F001021A72BCF1000F66
:1030900005D00031204618BF01215A68E0476D086D
:1030A0000134E0E7013E27EA0805DBD1BDE8F08105
:1030B00000200C4000300C4008300C400B2838B584
:1030C00004460D4604D9154840F2C521FFF7D4F94E
:1030D00025B9124840F2C621FFF7CEF9104BAA6875
:1030E000996801EB0411CA6029780122A24009B154
:1030F0009A6300E0DA636A6804F5886143F8212086
:10310000084B6A78234432B1012202FA04F40448DD
:1031100041F2080144509B001A6038BDA2520000E1
:1031200000200C406080E1100B2870B505460E466B
:10313000144604D9114840F21231FFF79DF924B921
:103140000E4840F21331FFF797F90D4B0EB19B6813
:1031500000E0DB682279E178920442EA813221784A
:1031600003EB0515A3786078890741EA037141EA0A
:10317000806141EA03631343AB6070BDA25200005B
:1031800000200C400F4B0120C3F880000E4B40F68E
:10319000FF7200215960DA615A62DA625A63DA63B7
:1031A000D86441F20C020948995041F20802985043
:1031B0000A4602F58861013200200C2A43F82100FA
:1031C000F7D1704700E100E000200C40FF0F0080C5
:1031D00010B5044620B9124840F2EB31FFF74CF924
:1031E000237923B10E4840F2EE31FFF745F9012172
:1031F0000C48FFF791FCFFF7C5FF0B4B0122C3F80A
:1032000080211A60094B41F20C024FF000419950A5
:1032100062689A602278520142F001025A6010BD41
:10322000A25200000003040000E100E000200C4076
:10323000024BDA6A024B1A80704700BF00800C40D4
:10324000760A0020417810B5084AC478D36A214331
:103250000478807823F4803341EA044123F00F039B
:1032600041EA40010B43D36210BD00BF00600C4037
:1032700030B5C2788479184B22430479596B42EAFD
:103280008402447921F01F0142EA44020A435A634E
:103290009A6BC17922F060020A439A63DA6B017A71
:1032A00022F060020A43DA630178427A45781C6BA7
:1032B0008078114341EA850124F0670441EA400126
:1032C00021431963054B1A6003F5FE2382F00102C6
:1032D00003F284731A6030BD00600C4080088C4398
:1032E0000528F8B505460C4616461F4601D80F2995
:1032F00003D92248CB21FFF7BFF876B1012324225E
:10330000A34037B16A4302F1804202F5C042136123
:1033100003E002FB05F11A4A535024226A43072CAA
:1033200002F1804202F5C0420AD8A3000F21994061
:1033300006FA03F3506820EA01010B4353600CE0E6
:1033400004F18041083989000F238B4006FA01F10E
:10335000906820EA0303194391606EB90122242387
:1033600002FA04F45D432FB105F1804505F5C0452F
:103370002C61F8BD024B5C51F8BD00BFCA52000081
:103380001460004038B50D46044618B91748FFF7D9
:103390001DFC0446164B9C4203D91648F421FFF746
:1033A0006BF80DB1A54203D91248F721FFF764F875
:1033B0000122002305FB02F0B4FBF0F0402805D900
:1033C000072B03D0013301229A40F3E70A4D6968C5
:1033D00021F47F2121F4E06141EA0323411E50439F
:1033E00043EA01336B60B4FBF0F038BD30041000E9
:1033F000FEFFFF01F352000000C00840044B1A68B2
:1034000022F003021043186009B101225A6170478B
:1034100000C00840032810B5044604D9064840F20D
:103420006311FFF729F8054B5A6822F4400242EA7B
:1034300084545C6010BD00BFF352000000C008401F
:1034400010B50C4670B1012814D1032904D90D48D8
:103450004FF4CA71FFF710F80B4B5A6822F00302C1
:10346000144305E0084B5A6822F0700242EA011446
:103470005C6010BD03484FF4D871BDE81040FEF702
:10348000FBBF00BFF352000000C0084003781C4A95
:10349000F0B513601BB1012B2AD100231CE01949A0
:1034A0001A4603279F408418657803320D60164D35
:1034B000182AEE6B26EA0707A67806FA03F646EA0C
:1034C0000706EE63E578A1F54074256001F104017B
:1034D00003F10203E5D1F0BD03EB4302024451784E
:1034E0000A4A1A4401339200102B1160F4D1F0BD46
:1034F000074840F28E21BDE8F040FEF7BDBF00BF97
:103500002C001843C00A184300C00840A002C6108F
:10351000F35200003F29F8B507460C4615461E46F3
:1035200004D90E4840F2FF21FEF7A6FF2A0604D573
:103530000A484FF44071FEF79FFF330604D5074851
:1035400040F20131FEF798FF760346EA85152C37E5
:10355000034B2C433F01DC51F8BD00BFF352000088
:1035600000C00840B1F5805F70B504460D461646B0
:1035700004D3114840F23731FEF77EFF0F2C04D9F7
:103580000D4840F23931FEF777FF200100F180430A
:1035900003F50C23D3F8C442184624F47F6424F0C6
:1035A0000F042C43C3F8C442D3F8C8321B0C1B04CD
:1035B0003343C0F8C83270BDF35200000F2970B514
:1035C00004460D4604D9484840F2F711FEF754FF6F
:1035D000E37B3F2B04D944484FF4FC71FEF74CFFCA
:1035E00094F91030002B04DA3F4840F2F911FEF74D
:1035F00043FF94F91130002B04DA3B484FF4FD717E
:10360000FEF73AFF638AB3F5805F04D336484FF480
:10361000FF71FEF731FF6368B3F5C03F07D1AB1E02
:10362000032B04D930484FF40071FEF725FF237AAD
:10363000032B08D1A5F10C03032B04D92A4840F22F
:103640000221FEF719FF237A032B06D1032D04D99B
:1036500025484FF40171FEF70FFF6A0003219140E6
:10366000224BEEB2986B20EA0101207A00FA02F2B6
:103670000A439A633046E17B227C637CFFF74AFF72
:10368000A27B637B920442EA43426368E18A13436C
:10369000A28A30460A4392B21343627A290143EA6E
:1036A000C242134B5A50227BA37A920442EA43420D
:1036B000E3691343E27A43EAC24201F1804303F52E
:1036C0000C23C3F8C822618A228BFFF74BFF094BFA
:1036D000A2782B449B001A606278A3F5D063C3F8EC
:1036E000802722781A6070BDF352000000C00840A5
:1036F000C4C208406002C6100F2938B504460D4602
:1037000004D92D4840F27E31FEF7B6FEE3780F2B48
:1037100004D9294840F27F31FEF7AEFEA3780F2B83
:1037200004D925484FF46071FEF7A6FE23790F2BCC
:1037300004D9214840F28131FEF79EFEE37A0F2B37
:1037400004D91D4840F28231FEF796FEA37A0F2B72
:1037500004D9194840F28331FEF78EFE237B0F2BEC
:1037600004D915484FF46171FEF786FEA278E3880C
:10377000E9001343E27801F1804143EA0213227920
:1037800001F50C2143EA0223227A43EA024322781C
:1037900043EA8243C1F80032A27AE3891343E27A12
:1037A00043EA0213227B43EA0223227C43EA0243D8
:1037B000C1F8043238BD00BFF35200000F2810B525
:1037C000044604D9044840F2B631FEF755FE034BD7
:1037D00004F00F041C6310BDF352000000C0084049
:1037E000194B1A490022DA645964D96841F0010181
:1037F000D9600A2159611A609A60DA601A619A6187
:103800009A63DA635A65100100F1804101F50C21D9
:103810000023C1F8C0320132C1F8C43200F1804146
:1038200001F50C21102AC1F8C832ECD1DA0002F1FE
:103830008042013302F50C220021102BC2F8001245
:10384000C2F80412F2D1704700C00840FFFF7F00A9
:1038500038B5037D0446032B0D4603D942485D214C
:10386000FEF70AFEA37F1F2B03D93F485E21FEF718
:1038700003FE0DB1FFF7B4FF207DFFF7CBFDE2683B
:10388000A368A178134362780B4343EA8203E2788A
:10389000364D43EA42232279207843EA8223627933
:1038A000002143EA4233A27943EA4243E27943EA00
:1038B0000243627C43EA82532B60FFF79FFDA26ABA
:1038C000236A217E1343627E0B4343EA8203A27E76
:1038D00043EA8213E27E43EA4203227F43EA021371
:1038E000627F43EA0223A27F43EA822394F82420E2
:1038F00043EA025394F8252043EA8253AB6094F8DC
:103900003C3094F83B209B0343EA8223A28D13436F
:1039100094F83D2043EA824394F83E2043EA8253E0
:1039200094F8342043EA420394F8352043EA8203B2
:1039300094F8362043EAC20394F8372043EA02138E
:1039400094F8382043EA421394F8392043EA82136A
:1039500094F83A2043EAC213EB60206BFFF72EFF86
:10396000237C2B6138BD00BFF352000000C008402B
:1039700010B5184C41F67133E363A3684FF4D010CF
:1039800023F00103A360FFF721F9134B98420ED9EE
:103990000B2358430A22B0FBF2F0236D0F4A23F4A5
:1039A0008033B0FBF2F0013023F03F030FE0372308
:1039B00058430A22236DB0FBF2F0084A23F4803307
:1039C00023F03F03B0FBF2F043F4803301300343B4
:1039D000236510BD00000C40C0CF6A0040420F00BC
:1039E000C36ADB0702D4036B1942FCD170470000A5
:1039F0002DE9F843354B044698420D4616460AD049
:103A000003F58063984249D003F58063984250D013
:103A10002F48B5210BE0B1F5803F03D32C48BA21E4
:103A2000FEF72AFDB6F5803F03D32948BB21FEF7F8
:103A300023FD276817F0030906D020460121FFF770
:103A4000CFFF27F00303236020460421FFF7C8FFC0
:103A50004FF00208204606216561FFF7C1FFC4F858
:103A6000048020464146FFF7BBFF0123AE4263605E
:103A70000AD020464146FFF7B3FF66612046062183
:103A8000FFF7AEFFC4F80480B9F1000F1CD0204648
:103A90000321FFF7A5FF2760BDE8F883FF2903D9BD
:103AA0000B48C221FEF7E8FCFF2EC2D90848C3210B
:103AB000BDE7FF2903D90648CA21FEF7DDFCFF2E2A
:103AC000B7D90348CB21B2E7BDE8F88300600840CE
:103AD000475300000E4B70B5984204460E460CD07A
:103AE00003F58063984208D003F58063984204D0C0
:103AF000084840F21B11FEF7BFFC2568204625F060
:103B0000030535430121FFF76BFF256070BD00BF42
:103B10000060084047530000144B70B598420446BB
:103B20000D4616460CD003F58063984208D003F585
:103B30008063984204D00E4840F23B11FEF79CFC93
:103B40003DB1012D0BD1640104F18444C4F8A86790
:103B500070BD640104F18444C4F8906770BD0448EA
:103B600040F25111BDE87040FEF786BC006008408D
:103B7000475300002DE9F843614B054698420C4637
:103B80000DD003F58063984200F0988003F58063C0
:103B9000984200F0A3805B4840F2B9110FE04B68F7
:103BA000B3F5803F04D357484FF4DF71FEF764FC50
:103BB000A368B3F5803F04D3524840F2BF11FEF72B
:103BC0005BFCEB6BE27C23F4737323F0030313437E
:103BD000227D05F1404943EA8213EB63237B627B3C
:103BE000A9F50629002B4FEA992914BF08230023C1
:103BF0000AB143F00403A27B0AB143F01003E27B55
:103C00000AB143F48073227C0AB143F4007394F840
:103C10001180A27C43EA8828032A05D8DFE802F055
:103C2000020A0A09032205E0364840F21A21FEF78B
:103C300023FC00226F0107F18447012614373E6000
:103C40004846002148EA8238FFF7EAF92278931EB5
:103C5000B34216D82846314648EA0207FFF7C0FEAD
:103C600020232B6028463146FFF7BAFE48463146EE
:103C7000FFF7D6F9A3686B6102236B602F60BDE884
:103C8000F8832B689B0706D048F020032B6028465A
:103C90003146FFF7A5FE00233B6061682846A26815
:103CA000FFF7A6FE2178012928D12846FFF798FEC4
:103CB000227848EA02022A60BDE8F8834B68FF2BAD
:103CC00004D910484FF4E371FEF7D6FBA368FF2B2D
:103CD0007FF677AF0B4840F2C71170E74B68FF2BB8
:103CE00004D908484FF4E771FEF7C6FBA368FF2B21
:103CF0007FF667AF034840F2CF1160E7BDE8F88375
:103D0000006008404753000038B5184B04469842FD
:103D10000D460BD003F5806398421BD003F58063FA
:103D200098421DD0124840F2D52105E0B1F5803F00
:103D300004D30F4840F2DA21FEF79EFB204604210F
:103D4000FFF74EFE656120460621FFF749FE02237C
:103D5000636038BDFF29F1D9054840F2E121EBE766
:103D6000FF29EBD902484FF43A71E5E700600840BB
:103D7000475300000B2870B504460D46164603D97C
:103D800007487921FEF778FB06F0070646F08056D3
:103D900005F47C15034B3543043443F8245070BDBF
:103DA0007053000000C00C4000F1875000F5A020C7
:103DB0008000016070470000094B01229A60A3F562
:103DC00080439968104611401CBF4AF6E8529A6039
:103DD000044A00231060136009B1034A93607047DE
:103DE00000A00C4080048C4300600C4010B5084BD0
:103DF0005A6800231846074C1959114204D01C4434
:103E00006468224208BF08430833802BF3D110BDF9
:103E100000A00C409853000010B5044618B909489A
:103E20003E21FEF729FB084B1A6902F03F0222707F
:103E30009A69DB6902F0F002C3F303131343637062
:103E400010BD00BF18540000D0FF0FE070B506464B
:103E50000D46144622B90F484FF4DA71FEF70CFBF9
:103E60001DB90D48FEF7B2FE0546631E03EB45057E
:103E7000B5FBF4F4A401403C084B24F0FF029A4245
:103E800004D9044840F2E311FEF7F6FA044B23404C
:103E9000736170BD4354000010810200C0FF1F0019
:103EA00000FF1F00174B10B5984204460CD003F5D5
:103EB0008063984208D003F58063984204D012488A
:103EC00040F22D31FEF7D8FA40F6AA63E36041F2E2
:103ED000050200232360626041F6F972A36063610A
:103EE000E364A264074A6365944208BF2365A3653F
:103EF000064B9C4203D003F580639C4201D1002312
:103F0000E36510BD00C000404354000000C4004001
:103F100038B5214B044698420D460CD003F580631A
:103F2000984208D003F58063984204D01B4840F2C1
:103F30006121FEF7A1FA2046FFF7B4FF2B8AAA7B86
:103F4000216843F00103002A9BB20CBF00224FF40A
:103F500080620B431343AA7C2360002A2A7D2368D6
:103F60000CBF00211021002A0CBF00224FF000528C
:103F70000B43134323602B7B204643F48053636041
:103F80006968AA68FFF762FF6B7B0BB11023E360DF
:103F90002B78E36038BD00BF00C0004043540000F0
:103FA00003691B06FCD5C069C0B270470B4B10B546
:103FB0001A68D00711D59B6899070ED44FF47A740C
:103FC000064B9A68D20706D5013CA4B21CB1012069
:103FD000FDF75AFDF4E701225A6010BD0080084049
:103FE000034B9B68DB07FBD4024B01221A6070472E
:103FF00000800840100010430278417810B5134645
:1040000009B142F00203817809B143F00403C17899
:1040100009B143F00803017909B143F02003417964
:1040200009B143F04003C179047A090341EA04214C
:104030000B4308498C68E407FBD40B6083793BB1E0
:104040001AB1BDE81040FFF7CBBF034B01221A6045
:1040500010BD00BF00800840100010434BB942B9AA
:10406000002908BF002802D04FF0FF31084600F0B9
:104070003BB882B0EC462DE9005000F01DF8DDF8A9
:1040800004E002B00CBC70472DE9704F089E144646
:104090001D468046894600F029F804FB01F3A4FB85
:1040A00000AB00FB05329344B8EB0A0869EB0B093F
:1040B000C6E90089BDE8708F2DE9704F089E14464F
:1040C0001D468046894600F061F900FB05F5A0FB1E
:1040D00004AB04FB0154A344B8EB0A0869EB0B09D9
:1040E000C6E90089BDE8708F704700BF00292DE93F
:1040F000F00FC0F2A1800024002BC0F2988015467A
:1041000006460F46002B3FD18A4258D9B2FA82F3B5
:104110004BB1C3F1200201FA03F720FA02F29D40ED
:1041200000FA03F61743290CB7FBF1F201FB1277F3
:10413000A8B200FB02F34FEA164C4CEA0747BB4219
:1041400009D97F1902F1FF3C80F00581BB4240F2A2
:104150000281023A2F44FF1AB7FBF1F301FB1371FE
:1041600000FB03F0B6B246EA0141884208D949197A
:1041700003F1FF3780F0F180884240F2EE80023B8D
:1041800043EA0242002303E08B420AD900231A4685
:104190001046194614B1404261EB4101BDE8F00FF1
:1041A0007047B3FA83F8B8F1000F40F088808B4273
:1041B00002D3824200F2E28000230122E8E712B932
:1041C0000123B3FBF2F5B5FA85F2002A3AD17F1B41
:1041D000280C1FFA85FC0123B7FBF0F100FB1177D7
:1041E0000CFB01F24FEA164848EA0747BA4207D9E2
:1041F0007F1901F1FF3802D2BA4200F2C480414671
:10420000BF1AB7FBF0F200FB12700CFB02FCB6B257
:1042100046EA0040844507D9401902F1FF3702D22F
:10422000844500F2AE803A4642EA0142B0E7E443F8
:10423000524263EB430362E7404261EB41014FF0BE
:10424000FF3459E79540C2F1200927FA09F126FA0F
:1042500009F99740280CB1FBF0F800FB18111FFA80
:1042600085FC0CFB08F349EA07094FEA194747EABE
:1042700001418B4206FA02F608D9491908F1FF32CA
:104280007AD28B4278D9A8F102082944C91AB1FB25
:10429000F0F300FB13170CFB03F21FFA89F949EA4C
:1042A0000747BA4207D97F1903F1FF3160D2BA42FA
:1042B0005ED9023B2F44BF1A43EA08438CE7C8F19A
:1042C000200225FA02F103FA08FC27FA02F320FA89
:1042D00002F207FA08F741EA0C0C4FEA1C49B3FB5B
:1042E000F9F109FB11331FFA8CFA0AFB01FB1743A2
:1042F0003A0C42EA03439B4505FA08F008D913EB50
:104300000C0301F1FF3235D29B4533D902396344A6
:10431000CBEB0303B3FBF9F209FB12330AFB02FAFE
:10432000BFB247EA0347BA4508D917EB0C0702F1B9
:10433000FF331BD2BA4519D9023A674442EA014514
:10434000A5FB0001CAEB07078F424FF000030AD319
:1043500005D02A461CE76246FDE63B4610E706FA12
:1043600008F68642F5D26A1E002311E71A46E5E7F1
:104370000B46A0E71146CBE7904687E74346424607
:1043800006E7023A50E702392F4439E72DE9F00FEA
:10439000144605460E46002B43D18A4253D9B2FA41
:1043A00082F757B1C7F1200620FA06F601FA07F3A3
:1043B00002FA07F400FA07F51E43210CB6FBF1F2EE
:1043C00001FB1266A0B200FB02F32F0C47EA06467F
:1043D000B34209D9361902F1FF3780F0FD80B342AC
:1043E00040F2FA80023A2644F61AB6FBF1F301FBDA
:1043F000136100FB03F0ADB245EA0141884208D9E0
:10440000091903F1FF3680F0E980884240F2E68026
:10441000023B43EA0242002310461946BDE8F00F72
:1044200070478B424CD8B3FA83F6002E4FD18B42A3
:1044300002D3824200F2DD80BDE8F00F00230122AA
:1044400010461946704712B90124B4FBF2F4B4FACD
:1044500084F2002A40F08280091B260CA7B20123B7
:10446000B1FBF6F006FB101107FB00F24FEA154C0A
:104470004CEA01418A4207D9091900F1FF3C02D2F6
:104480008A4200F2C8806046891AB1FBF6F206FB48
:10449000121107FB02F7ADB245EA0145AF4208D958
:1044A0002C1902F1FF3180F09B80A74240F29880E6
:1044B000023A42EA004210461946BDE8F00F704742
:1044C00000231A4610461946BDE8F00F7047C6F1A2
:1044D000200522FA05F703FA06F421FA05F301FA9A
:1044E00006FB20FA05F53C434FEA1448B3FBF8FC01
:1044F00008FB1C331FFA84F909FB0CFA45EA0B0B85
:104500004FEA1B4545EA03439A4502FA06F204D9ED
:104510001B190CF1FF356FD3AC46CAEB0303B3FB99
:10452000F8F508FB153309FB05F91FFA8BFB4BEA7D
:104530000347B94504D93F1905F1FF3362D31D463E
:1045400045EA0C4CACFB0223C9EB07079F424FF036
:1045500000054AD346D062462B465DE79440C2F13F
:10456000200921FA09FC914020FA09F9260CBCFB2C
:10457000F6F806FB18CCA7B207FB08F349EA0109D5
:104580004FEA194141EA0C4C634500FA02F509D99A
:104590001CEB040C08F1FF323BD2634539D9A8F17A
:1045A0000208A444C3EB0C0CBCFBF6F306FB13C1DE
:1045B00007FB03F21FFA89F949EA01418A4207D948
:1045C000091903F1FF3022D28A4220D9023B21444B
:1045D000891A43EA084343E73A4605E7334618E7B2
:1045E0000A4666E7B0409042B5D20CF1FF32002394
:1045F00012E7334632460FE79A458DD9ACF1020CEB
:1046000023448AE7B9459AD9023D274498E70346EF
:10461000DEE79046C6E70238214435E708B5074B88
:10462000044613B10021AFF30080054B1868836A7C
:1046300003B19847204600F073FC00BF0000000063
:104640007055000070B50E4B0E4D0024ED1AAD10E4
:104650001E46AC4204D056F8242090470134F8E7B7
:1046600000F060FC084D094B0024ED1AAD101E4609
:10467000AC4204D056F8242090470134F8E770BDCE
:10468000000300200003002004030020000300209A
:1046900010B50023934203D0CC5CC4540133F9E736
:1046A00010BD02440346934202D003F8011BFAE70F
:1046B0007047034613F8012B002AFBD1181A013862
:1046C000704770B58AB10B4605461C7810F8016B2F
:1046D0000131B44201D1012A03D128781B78C01AD4
:1046E00070BD013A002CEED1F7E7104670BD000016
:1046F00070B50E461446054618B183690BB900F033
:10470000BBF9224B9C4201D16C6808E0204B9C42D3
:1047100001D1AC6803E01F4B9C4208BFEC68A36961
:10472000A360A3891A0709D523693BB123692068CF
:10473000F6B2C01A636998420FDB08E028462146AA
:1047400000F02AF80028F1D04FF0FF3070BD284665
:10475000214600F013F90028F6D1A3680130013B8F
:10476000A36023685A1C22601E706369984204D0BB
:10477000A389DB0707D50A2E05D12846214600F07C
:10478000FDF80028E0D1304670BD00BF7455000030
:1047900094550000B4550000324B70B51D680646B4
:1047A0000C4625B1AB6913B9284600F065F92E4BCC
:1047B0009C4201D16C6808E02C4B9C4201D1AC6852
:1047C00003E02B4B9C4208BFEC68A28993B2190707
:1047D00020D4DD0605D4092342F040023360A281D3
:1047E0003BE0580712D5616B41B104F14403994293
:1047F00002D0304600F0F6F900236363A38923F06A
:104800002403A3810023636023692360A38943F009
:104810000803A38123694BB9A38903F42073B3F57B
:10482000007F03D03046214600F090F9A38913F0B1
:10483000010205D00022A26062695242A26103E037
:10484000990758BF6269A26022694AB903F08000E3
:1048500080B230B143F04003A3814FF0FF3070BD10
:10486000002070BD300100207455000094550000F8
:10487000B45500008A892DE9F041054610070C4621
:1048800057D44B68002B02DC0B6C002B18DDE66A5A
:10489000B6B102F48052002392B22F682B600AB1A5
:1048A000626D10E0216A28460123B047411C024690
:1048B00009D12B683BB11D2B01D0162B46D12F609F
:1048C0000020BDE8F081A3895B0705D56368D21A93
:1048D000636B0BB1236CD21AE66A2846216A002367
:1048E000B047461CA28905D12B681BB11D2B01D0F6
:1048F000162B19D1002363602369D104236004D5EA
:10490000421C01D12B6803B96065616B2F600029DF
:10491000D6D004F14403994202D0284600F062F94F
:1049200000206063BDE8F08142F04002A281BDE852
:10493000F0810E69002EC3D00B680E60C6EB030831
:1049400093070CBF4B6900238B6012E0A3894FF0E3
:10495000FF3043F04003A381BDE8F081A76A2846F9
:10496000216A32464346B8470028EFDD0644C0EBD3
:104970000808B8F1000FF1DCA2E7000038B50B69B8
:1049800005460C46DBB118B183690BB900F074F829
:104990000C4B9C4201D16C6808E00B4B9C4201D14E
:1049A000AC6803E0094B9C4208BFEC68B4F90C30DA
:1049B0002BB128462146BDE83840FFF75BBF0020F9
:1049C00038BD00BF7455000094550000B455000078
:1049D000F8B5074600F1480494B1A5686668013E41
:1049E0000CD4AB89012B07D9B5F90E30013303D0B4
:1049F00038462946FFF7C2FF6835F0E72468EBE741
:104A0000F8BD0000002310B50446036043608360D6
:104A100081814366C28103614361836119465C30D1
:104A20000822FFF73EFE054B24626362044BA3623B
:104A3000044BE362044B236310BD00BF354D0000FF
:104A4000574D00008F4D0000B34D000070B54B1E58
:104A500068255D430E4605F1740100F007F9044630
:104A600040B1002180E842000C30A06005F16802EE
:104A7000FFF717FE204670BD836910B5044633BBAF
:104A80008364C3640365124B124A1B6882629842B6
:104A900004BF0123836100F01FF86060204600F02E
:104AA0001BF8A060204600F017F80421E060002207
:104AB0006068FFF7A7FFA06809210122FFF7A2FFA6
:104AC000E06812210222FFF79DFF0123A36110BDC0
:104AD00070550000D1490000F8B51B4B07461E6811
:104AE000B36913B93046FFF7C7FF4836B468736837
:104AF000013B04D4B4F90C5075B16834F8E733685D
:104B00002BB938460421FFF7A1FF306008B13668A1
:104B1000ECE70C233B60F8BD4FF6FF73E381012304
:104B2000A38165662560A560656025616561A561F5
:104B300004F15C0029460822FFF7B3FD6563A56315
:104B4000A564E5642046F8BD70550000F0B58B897A
:104B500091B09E0705460C4625D4B1F90E100029E8
:104B600008DAA389002713F0800F14BF40264FF402
:104B700080660DE001AA00F043F90028F1DB029FF6
:104B80004FF4806607F47047B7F500514F424F412C
:104B90002846314600F06AF860B9A3899A051DD409
:104BA00043F00203A38104F147032360236101233F
:104BB000636113E00A4BAB62A389206043F080037A
:104BC000A381206166614FB12846B4F90E1000F050
:104BD00029F918B1A38943F00103A38111B0F0BDF5
:104BE000D149000030B500293CD051F8042C0B1FEE
:104BF0001D49002AB8BF9B180A680C4612B95A60B2
:104C00000B6030BD93420DD219685818904203D101
:104C10005A581144426819605A60236030BD994265
:104C200003D80A4651680029F9D1146815199D4224
:104C30000AD11B682344D0188842136012D1086837
:104C4000034413604B680CE002D90C23036030BDB1
:104C500018681C188C4203D10C68496820441860FD
:104C60005960536030BD00BF800A002070B5CD1C74
:104C700025F0030508350C2D38BF0C25002D064600
:104C80003FDB8D423DD3214B1C6818462146A1B124
:104C90000B685B1B0ED40B2B03D90B60CC18CD50CB
:104CA0001FE08C4202D1626802601AE04B686360C8
:104CB0000C4616E00C464968E9E7154C23681BB919
:104CC000304600F027F820602946304600F022F8F0
:104CD000431C014615D0C41C24F0030484420AD1AD
:104CE000256004F10B00231D20F00700C31A0BD030
:104CF0005A42E25070BD3046611A00F00BF80130A4
:104D0000EED10C233360002070BD00BF800A00206C
:104D10007C0A002038B5064C00230546084623606F
:104D200000F0DCF8431C02D1236803B12B6038BDCE
:104D30000C0E002010B50C46B1F90E1000F094F8DE
:104D4000002803DB636D0344636510BDA38923F46E
:104D50008053A38110BD2DE9F0411D468B89074684
:104D6000DB050C46164605D5B1F90E1000220223CC
:104D700000F068F8A389384623F48053A381B4F97E
:104D80000E1032462B46BDE8F04100F017B810B5C2
:104D90000C46B1F90E1000F055F8431CA38903D15D
:104DA00023F48053A38110BD43F48053A381606535
:104DB00010BDB1F90E1000F013B8000038B5074C63
:104DC000054600202060084611461A4600F0A0F86B
:104DD000431C02D1236803B12B6038BD0C0E0020A8
:104DE00038B5064C002305460846236000F04EF80F
:104DF000431C02D1236803B12B6038BD0C0E002088
:104E000038B5074C0023054608461146236000F0DC
:104E100045F8431C02D1236803B12B6038BD00BFA5
:104E20000C0E002038B5064C0023054608462360CA
:104E300000F03CF8431C02D1236803B12B6038BD5D
:104E40000C0E002038B5074C0546002020600846AF
:104E500011461A4600F032F8431C02D1236803B110
:104E60002B6038BD0C0E002038B5074C05460020DD
:104E70002060084611461A4600F028F8431C02D16B
:104E8000236803B12B6038BD0C0E0020024B582262
:104E90001A604FF0FF3070470C0E0020024B582272
:104EA0001A604FF0FF3070470C0E0020024B582262
:104EB0001A600020704700BF0C0E0020024B5822E1
:104EC0001A604FF0FF3070470C0E0020024B582242
:104ED0001A604FF0FF3070470C0E0020094A13682B
:104EE00063B118446946884202D81060184670477A
:104EF000054B0C221A604FF0FF307047034B1360D4
:104F0000EFE700BF840A00200C0E0020100E0020E6
:104F1000024B58221A604FF0FF3070470C0E0020F1
:104F2000FEE700BFF8B500BFF8BC08BC9E4670475E
:104F3000F8B500BFF8BC08BC9E46704700000000F2
:104F400001B40248844601BC604700BFB50100209F
:104F500001B40248844601BC604700BF3D02002006
:104F60006261636B75705F796561680001000000C4
:104F70000100000090010000A00F000001000000EF
:104F80000800000096000000B80B000001000000BF
:104F900003000000C80000008813000001000000AA
:104FA0000300000096000000102700000000000031
:104FB000080000002C0100007C92000000000000AE
:104FC000030000003C000000201C00000000000066
:104FD000010000001E000000E803000000000000C7
:104FE00006000000280000002C0100000000000066
:104FF000010000001E000000C409000000000000C5
:105000000100000050000000401F000000000000F0
:105010000400000064000000D43000000000000024
:10502000010000002D0000007C15000000010000C0
:10503000000000000000000000010000200000004F
:10504000000000000000000001020100000000005C
:105050000000000000000000000000000000000050
:105060000000000000000000000000000000000040
:10507000000000000000000000000001010100012C
:105080000000000000000000000000000000000020
:105090000000000000000000000004000202000008
:1050A00000000000000000000000000000010000FF
:1050B00000000100010203000D0A0D0A5B232320FA
:1050C0004D656D4D616E6167655F4661756C7420FD
:1050D00023235D0D000D0A0D0A5B23232042757307
:1050E0005F4661756C742023235D0D000D0A0D0A67
:1050F0005B23232055736167655F4661756C74207F
:1051000023235D0D004576656E742074696D6572AC
:105110000030313233343536373839414243444533
:1051200046003031323334353637383961626364A2
:105130006566003078003058002D0020002B0028D4
:105140006E756C6C29002500202020202020202056
:1051500020202020202020203030303030303030CF
:1051600030303030303030305E002E2E2F2E2E2F4B
:105170006370752F61726D2F2F65666D33322F65E9
:105180006D6C69622F696E632F656D5F6770696F03
:105190002E680001000000000000000F0101000067
:1051A00000300000010000000000000001000000CD
:1051B00000000101050000000000000040420F0057
:1051C00005010000000000000000000005000000D4
:1051D0000000000000C201000005000000100000F7
:1051E000000000002E2E2F2E2E2F6370752F61725F
:1051F0006D2F2F65666D33322F656D6C69622F736D
:1052000072632F656D5F61636D702E63000D0A0D13
:105210000A41737365727445464D3A202573206CBC
:105220003A25640D0A002E2E2F2E2E2F6370752F17
:1052300061726D2F2F65666D33322F656D6C6962FB
:105240002F7372632F656D5F62757274632E6300D6
:105250002E2E2F2E2E2F6370752F61726D2F2F65BE
:10526000666D33322F656D6C69622F696E632F65D1
:105270006D5F62757274632E68002E2E2F2E2E2F96
:105280006370752F61726D2F2F65666D33322F65D8
:105290006D6C69622F7372632F656D5F636D752E20
:1052A00063002E2E2F2E2E2F6370752F61726D2F9F
:1052B0002F65666D33322F656D6C69622F73726373
:1052C0002F656D5F646D612E63002E2E2F2E2E2FA5
:1052D0006370752F61726D2F2F65666D33322F6588
:1052E0006D6C69622F7372632F656D5F6770696F94
:1052F0002E63002E2E2F2E2E2F6370752F61726D50
:105300002F2F65666D33322F656D6C69622F737256
:10531000632F656D5F6C6573656E73652E63002E1C
:105320002E2F2E2E2F6370752F61726D2F2F6566B5
:105330006D33322F656D6C69622F7372632F656DEB
:105340005F6D73632E63002E2E2F2E2E2F637075CC
:105350002F61726D2F2F65666D33322F656D6C690D
:10536000622F7372632F656D5F70636E742E6300BE
:105370002E2E2F2E2E2F6370752F61726D2F2F659D
:10538000666D33322F656D6C69622F7372632F65A2
:105390006D5F7072732E630001000000000000005A
:1053A00002000000810000000400000091000000E5
:1053B00008000000010000001000000003000000D1
:1053C00020000000DFEF0000400000009FEF000021
:1053D000800000001907000000010000190600000D
:1053E000000200001F040000000400001F02000073
:1053F0000008000001000000001000000100000093
:10540000002000000100000000400000010000003A
:1054100000800000010000002E2E2F2E2E2F637022
:10542000752F61726D2F2F65666D33322F656D6C30
:1054300069622F7372632F656D5F73797374656D25
:105440002E63002E2E2F2E2E2F6370752F61726DFE
:105450002F2F65666D33322F656D6C69622F737205
:10546000632F656D5F75736172742E630000202079
:105470002020202020202028282828282020202004
:1054800020202020202020202020202020208810C4
:105490001010101010101010101010101010040424
:1054A000040404040404040410101010101010412B
:1054B000414141414101010101010101010101019C
:1054C0000101010101010101011010101010104231
:1054D000424242424202020202020202020202026C
:1054E000020202020202020202101010102000004A
:1054F00000000000000000000000000000000000AC
:10550000000000000000000000000000000000009B
:10551000000000000000000000000000000000008B
:10552000000000000000000000000000000000007B
:10553000000000000000000000000000000000006B
:10554000000000000000000000000000000000005B
:10555000000000000000000000000000000000004B
:1055600000000000000000000000000000004300F8
:10557000D00000200000000000000000000000003B
:10558000000000000000000000000000000000001B
:10559000000000000000000000000000000000000B
:1055A00000000000000000000000000000000000FB
:1055B00000000000000000000000000000000000EB
:1055C00000000000000000000000000000000000DB
:0855D0000000000000000000D3
:0855D8007CABFF7F0100000025
:1055E00000D8000004000500100002000F000000B9
:1055F000010005080200001000000708020000205A
:105600000100000001000100008000000001010015
:1056100001000005050F3800001000000000000028
:10562000000000000000000700000000010000076B
:105630000000000001000000010000000000000068
:10564000FFFF000000000000000103000100000057
:105650000000000A000000000000000A0000000036
:1056600000000000010001000080000000010100B6
:1056700001000005050F38000010000000000000C8
:1056800000000000010000000000000005510000C3
:10569000F10F000000000000C51200000000000033
:1056A000E803000000800000006CDC026D54000084
:1056B000000000007455000094550000B45500002F
:1056C00000000000000000000000000000000000DA
:1056D0006E55000000000000000000000000000007
:1056E00000000000000000000000000000000000BA
:1056F00000000000000000000000000000000000AA
:105700000000000000000000000000000000000099
:10571000D0000020094B01221861DA60DB6913F028
:10572000060008D05A0705D413F0020F0CBF002062
:10573000FE2000E0FF2040B2704700BF00000C4098
:1057400030B5124B124AD46924070DD453B1013B32
:10575000F8E70823D3600D4B0D4AD06910F0010023
:105760000DD183B9FD200EE0002BFBD000238B422E
:10577000EFDA50F82340064D0133AC61F7E7002B18
:10578000F0D0013BE8E740B230BD00BF8096980002
:1057900000000C40C0F30A0310B5044623B11C48B6
:1057A0004FF4A87100F094F81A4B9A6842F0010285
:1057B0009A6001221C61DA60DA69510705D59A689E
:1057C000FF2022F001029A601FE0DA69920705D5F6
:1057D0009A68FE2022F001029A6016E00222DA6046
:1057E0000D4A0C4BD869194610F0010002D012B1D5
:1057F000013AF6E72AB98B68FD2023F001038B609C
:1058000003E09A6822F001029A6040B210BD00BF26
:105810001F53000000000C408096980010F0030F0A
:105820002DE9F04180460E46174604D01B4840F251
:10583000B91100F04DF8BB0704D018484FF4DE71E1
:1058400000F046F8164BBF109A68002442F001029F
:105850009A60BC4219DA08EB84052846FFF75AFF24
:10586000A0B9C5F30A05C5F500653B1BAD089D420F
:10587000A8BF1D462C44002DEBD030460121FFF778
:105880005FFF18B90436013DF5E70020044B40B234
:105890009A6822F001029A60BDE8F0811F5300006F
:1058A00000000C40084B9A6842F001029A6046F2F0
:1058B0001A325A654FF48072DA60D86910F001002C
:1058C000FBD1014B5865704700000C400000000000
:1058D00001B40248844601BC604700BF792400003F
:0858E000250100000101000098
:04000003000021EDEB
:00000001FF
