:10D8000000800020C9C10100FFC10100593A010098
:10D810006B3A01007D3A01008F3A0100FDC1010021
:10D82000FDC10100FDC10100FDC1010009C20100EF
:10D830000BC20100FDC101000DC20100D5AD010008
:10D8400055CD0100E5B1010015C2010039BF01004D
:10D8500019C201001BC201001DC2010055B7010021
:10D8600021C2010023C2010025C2010009B201004A
:10D8700029C201002BC201002DC20100ADBD010073
:10D8800031C20100E51F010035C2010037C20100AD
:10D8900039C201003BC201003DC201003FC201008C
:10D8A00041C2010043C2010045C201003D20010008
:10D8B00049C201004BC2010089AF0100C9B4010097
:10D8C00051C2010053C2010055C2010057C20100FC
:10D8D00059C201005BC201005DC2010000000000EE
:10D8E0000000000000000000000000000000000038
:10D8F0000000000000000000000000000000000028
:10D9000010B5054C237833B9044B13B10448AFF379
:10D9100000800123237010BD0010002000000000D3
:10D92000D01B020008B5064B1BB106480649AFF3F1
:10D9300000800648036813B1054B03B1984708BD42
:10D9400000000000D01B020004100020680F00201F
:10D9500000000000154B002B08BF134B9D46A3F59C
:10D96000803A00218B460F461348144A121A11F0D0
:10D9700059F90F4B002B00D098470E4B002B00D0CD
:10D9800098470020002104000D000D48002802D017
:10D990000C48AFF3008011F007F9200029000AF0CD
:10D9A00091FB11F0E9F800BF0000080000800020A2
:10D9B000000000000000000000100020184A0020B5
:10D9C00000000000000000000B4A0C4B92F86814A5
:10D9D0001977B2F86A14D983B2F86C141984B2F8C2
:10D9E0006E1492F870245984003218BF012283F813
:10D9F00024200CF01DBB00BFE03C00203044002080
:10DA000008B50269094B92F90010D3F8AC22042042
:10DA10000A440749C3F8AC220CF0DCFC02200CF0ED
:10DA20001DF90AF0D1FB002008BD00BFE03C00203A
:10DA30006CF5010008B50AF0C7FB002008BD000026
:10DA400008B50DF064FA0349024604200CF0C2FC4C
:10DA5000002008BD8CF501001FB503238DF80730A9
:10DA60004FF41063ADF8083001210DF1070302A84F
:10DA700002228DF80A1003930CF020F905B05DF82E
:10DA800004FB000070B5184E184B194C8CB0306870
:10DA9000236100F00DFC174B93F89A320BB3216908
:10DAA00007A804F089FF08A80799002200F034FCB9
:10DAB0000AAD00210A46284600F02EFC00230193FF
:10DAC000029303AB95E8030083E803000A4B0B487D
:10DAD0000593099B0A4900932246089B00F084FBAA
:10DAE00030600CB070BD00BF1C100020341000204E
:10DAF00020100020E03C0020B9E70000A9F501005B
:10DB000001DA00002DE9F04F05889FB00023074699
:10DB10000893ADF824302DB140F2F912954200F08F
:10DB2000DD81E0E1B74C0CF099FA012004F00AF82D
:10DB3000B5480CF055FD0CF03BFD0CF07DF9E27B97
:10DB4000A37B120242EA0342237CB04E1A4341F601
:10DB500011339A42D8BFF5613268AD4DC4F88422C2
:10DB6000D4F89C23A74B0132C4F89C236A68D206E0
:10DB700017D5D3F8A0230132C3F8A023D3F8AC24DF
:10DB80001AB940F69802C3F8AC24D4F8AC34B420E7
:10DB90005843A049D1E90023121843F10003C1E919
:10DBA0000023F369180704D0D4F8A4330133C4F870
:10DBB000A433D4F89434962B05D90A22B3FBF2F39C
:10DBC000904AC2F89434C823A3730123237495F8B0
:10DBD00026304FF0000884F8ED3595F827308E4850
:10DBE00084F8EE3595F8283084F80F8084F8EF3506
:10DBF00004F0EAF903F0BCFD94F89433A4F88A0425
:10DC0000012B08BF7F4B4FF0020008BF83F89783BA
:10DC10000CF024F8E37D227E0DF1200843EA022275
:10DC2000930AC2F3441102F01F0240320192227D96
:10DC300040310292E27C40330392A27C0091049234
:10DC4000627C19210592627D17A80692A27D079237
:10DC5000724A0CF02DFD062140460CF09FF9D4F8D5
:10DC600084126F480CF0BCFC94F894236D4B042A8A
:10DC70001A7096BF6C4B6D4B03EBC203009301927D
:10DC80006B496C4A434604200CF0A4FBCDF800809D
:10DC90006B686949019317AA664B04200CF09AFB44
:10DCA000F3695A4A19070CD0D369116A526A0220E3
:10DCB0008DE8060003F00F036049D4F8A4230CF0AC
:10DCC00089FBD4F8843223B94E4BD3F89C030EF071
:10DCD0006BF807F011FE00F079FA12A80BF0C0FE05
:10DCE000012811D09DF856309DF855102BB911B967
:10DCF000084606F007F9022004E011B9012006F0F9
:10DD000001F9062003F06EFA4D494FF480600CF0E3
:10DD10002DF90220FFF7B6FE0DF130090AA8002602
:10DD200000F006FB4FF0FF3B48464649002200F05A
:10DD3000F3FA0DF10C080196CDF808B099E803004C
:10DD400088E80300DFF824A10B9B32463E4900938C
:10DD5000CDF814A00A9B3D4800F046FA0DF14009A9
:10DD60000EA800F0E5FA32464846322100F0D4FA17
:10DD70000196CDF808B099E8030088E803000F9BEE
:10DD80003246009332490E9BCDF814A0314800F082
:10DD90002BFA4FF4106030490CF0E8F84FF4FE40D5
:10DDA0002E490CF0E3F82E494FF4A0600CF0DEF899
:10DDB0002C4BDFF850801B68984704F007FD2A4B76
:10DDC0005B68984702F058FE02F0A8FA94F8946352
:10DDD00016B90223AB7512E0012E49D16A6848F2E8
:10DDE000801313404BB141F288300DF06BF8304690
:10DDF00003F0B4FE0DF06CFC6DE0054A13770CF0F7
:10DE000017F968E0E03C0020ADF501000011084082
:10DE100030440020604100204C440020BAF501004D
:10DE2000E0F501003510002038F50100D2150200A0
:10DE3000EFF501000CF601001CF6010045F60100AB
:10DE400085DA0000008D270041DA00007EF601002F
:10DE5000F9DE000084F6010011E0000025DF00007B
:10DE6000DDDF000028100200F0110200F3E70000DF
:10DE7000022E03D11E4803F075FB2CE0032E2AD19D
:10DE80001C494FF430600CF071F80220FFF79CFD44
:10DE900001F090FB02F01CFB6B68DB0613D4159BB2
:10DEA0004FF47A7023F07F4323F0FF03B3F5807FB4
:10DEB00005BF98F8B832D8F8B0223C23B2FBF3F390
:10DEC000584302F0B1FA94F8B034022B03D10AF0AF
:10DED000C7F809F077FF012003F040FE40F2F91384
:10DEE0003B80012001E0038003201FB0BDE8F08FDC
:10DEF00059DA0000C9D9000010B5084C0DF00AFA33
:10DF000004F0CEF8236833B12268022004490CF0F3
:10DF100061FA00232360002010BD00BF7C3B00207D
:10DF200089F6010070B5294E96B096F8CC350446B6
:10DF3000002B48D078B101281DD108AD284600F04B
:10DF4000F7F90AA82146D6F8602200F0E5F90B9B04
:10DF500000930A9B0BE00CAD284600F0E9F90EA8EF
:10DF60000121224600F0D8F90F9B00930E9B06A8D2
:10DF700095E806000EE010AC204600F0D9F912A892
:10DF80000121002200F0C8F9139B06A80093129B00
:10DF900094E8060000F0BAFB14AC00210A462046C3
:10DFA00000F0BAF900220192029203AB94E8030058
:10DFB00083E80300064B07480593079B0649009337
:10DFC000069B00F011F916B070BD00BFE03C0020C8
:10DFD0006BE70000A8F6010035DA0000024B0122D1
:10DFE00083F8CC25FFF79EBFE03C002008B50BF07E
:10DFF000C4FB044B00221A7701229A75BDE8084041
:10E000000CF016B8304400200220FFF7DDBC000001
:10E0100073B5184B184C1B7894F8941306468B4232
:10E0200025D0042B96BF154A154A02EBC3020429DA
:10E0300096BF124D124D05EBC105019100950420CC
:10E0400010490CF0C7F994F89433012B02D1FFF773
:10E05000CDFF03E0022B01D1FFF7D6FF01233046AD
:10E0600084F8CC3502B0BDE87040FFF75BBF02B06A
:10E0700070BD00BF35100020E03C002038F50100E5
:10E08000D2150200AFF6010073B504468DE8060014
:10E090001E4623B99DE8030084E8050017E00DF053
:10E0A00081FEB0FBF6F303FB16004FF47A72B0FB6F
:10E0B000F2F102FB1100BDF80460009B0644194414
:10E0C00096FBF2F302FB136219442160A280204602
:10E0D00002B070BD01480AF00BBD00BF1807002058
:10E0E0002DE9F843174B064608460F469146D3F8EC
:10E0F00000800AF07AFD0025044644B1E268F36826
:10E10000208A9A42318A14D301D1884211D33846E9
:10E11000294632460AF0A7FDB9F1000F0FD004B12D
:10E120006DB9094880450AD0802100220AF09CFC84
:10E1300005E020460AF09FFD25460446DDE7002065
:10E14000BDE8F8836C2F0020180700200149012248
:10E15000FFF7C6BF5410002010B5044605480AF06A
:10E1600044FD28B14368A34202D00AF084FDF8E7D9
:10E1700010BD00BF5410002073B5866A044616B364
:10E18000038E018CC26A1944C369D0184FF47A72A5
:10E1900091FBF2F3184402FB1313E061238404F1B2
:10E1A0001C0393E806006846636AFFF76DFF9DE86D
:10E1B000030004F10C0383E80300A36A002BC4BF2F
:10E1C00003F1FF33A362304602B070BD08B50448C6
:10E1D0000AF008FDBDE80840024800210AF070BCC2
:10E1E000541000201807002082B02DE9F04F85B0B0
:10E1F0000F9302AD0FAB80468B4693E8030085E892
:10E20000030027481746129EDDF84CA0BDF8509039
:10E210000AF09BFC044660B90220224942460CF0F9
:10E22000D9F821480AF0E1FC002833D00AF023FD98
:10E23000FAE736B1BAF1000F03D1B9F1000F08BF08
:10E2400000261A49C4F808800B68C4F814B0581C9A
:10E25000636004F11C030860A76195E8030083E88C
:10E26000030095E80600119B68466362159BA66251
:10E270006363C4F82CA0119BA4F83090FFF704FF4F
:10E280009DE8030004F10C0383E803002046FFF738
:10E290005DFF606805B0BDE8F04F02B0704700BF99
:10E2A00028070020D5F60100541000203407002074
:10E2B00010B510B94FF0FF3010BDFFF74DFF044609
:10E2C0000028F7D0214604480AF0A1FC2146034863
:10E2D0000AF04FFC002010BD541000202807002039
:10E2E00070B505460846FFF737FF044678B1068A41
:10E2F0000DF022F946434FF47A73B6FBF3F6420869
:10E3000003FB0626E368B6FBF0F4A4B200E0034684
:10E310002B60AC80284670BD30B54FF47A75B2FBE7
:10E32000F5F4214405FB14240160848030BD000015
:10E3300013B5044668460CF0D1FD019B044A204603
:10E34000B3FBF2F2009BA280236002B010BD00BFBD
:10E3500040420F00F0B5054687B02C480AF042FC59
:10E3600004A8FFF7E5FF2A4B1E68002D4BD0294B70
:10E370009E421F4615D1284B1C6894B1274B0122A1
:10E380001A70636B6BB1294620469847E3680420F6
:10E390000093238A029501932149A26863680CF0D7
:10E3A00019F820480AF02DFC0446F0B1436BB3B1D4
:10E3B00029469847013007D100951B49A268636838
:10E3C00003200CF007F8ECE7E36804200093238AAD
:10E3D000029501931549A26863680BF0FBFF204684
:10E3E0000A490022FFF77CFEDBE70E4807490AF0E6
:10E3F000FEFBBE4207D007488021224607B0BDE899
:10E40000F0400AF031BB07B0F0BD00BF5010002053
:10E410006C2F0020180700205C10002058100020EE
:10E42000FAF601005410002047F7010084F70100BC
:10E43000F0B541488DB00AF0D8FB04460DF084F8E1
:10E4400005A8FFF775FF3D4E002C44D03A480AF06E
:10E45000D8FBA26907AB04F10C05306095E8030016
:10E460000B9283E80300626918469047431C06D16B
:10E4700033496268A36802200BF0ACFF18E0022861
:10E4800008D1A36803202F4962680BF0A3FF002383
:10E49000A3620DE001280BD10998059ABDF8281058
:10E4A0009042BDF8183028D319D1994225D316E0EF
:10E4B000A36A63B1244B1A781AB92046FFF75CFEB1
:10E4C00001E000221A702046FFF740FE03E01F48DB
:10E4D00021460AF04EFB002333600DB0F0BD8DE8FD
:10E4E00003001B49A368042062680BF073FF09ABAB
:10E4F00093E8030085E80300E5E7E56A278E05B9A0
:10E5000017B13B442A4400E001324FF47A7793FB81
:10E51000F7F507FB15332A44E26023828DE80300F8
:10E52000E3680C490293238A032003936268A3687B
:10E530000BF050FFC7E700BF541000205C10002014
:10E54000C9F70100E6F70100581000202807002055
:10E550005CF8010003F8010082B010B50446039393
:10E5600029B903AB93E8030084E803000FE08A4273
:10E5700024BFB2FBF1F001FB1022B3FBF1F001FB71
:10E5800000229A4238BF521800232260A3802046FE
:10E59000BDE8104002B070471FB504AC04E90300A9
:10E5A0008DE80C001346029A9A4208D301D000204D
:10E5B00006E0BDF80C20BDF804309A42F7D20120E5
:10E5C00004B010BD1FB504AC04E903008DE80C00D5
:10E5D000029BBDF804009A42BDF80C1004D301D090
:10E5E000002002E08842FBD2012004B010BD82B0BE
:10E5F00013B502AC04E90600009C05939C42BDF8EB
:10E600000420BDF8181002D30AD18A4208D800228B
:10E6100013460360828002B0BDE8104002B070472C
:10E62000521AC3EB040302D5013B02F57A7292B28F
:10E63000EFE70000F0B503888FB005463BB140F22C
:10E64000731293420BD000230380032057E02D4820
:10E650000AF0C8FA40F273132B8001204FE08229A0
:10E6600001D1FFF7E5FE27480AF0BFFA0028F1D0F4
:10E6700000F10C040AA8FFF75BFEBDF82C100A9805
:10E6800028314FF47A7291FBF2F31F182068A688A4
:10E69000B84205D321D102FB13139BB29E421CD872
:10E6A00006A8FFF745FE2368069AA1889A42BDF89E
:10E6B0001C0002D3D5D18842D3D208A8FFF738FE78
:10E6C000099B04A8009394E80600089BFFF78FFFBE
:10E6D000BDF814000CF0F1FBC3E70CA8FFF728FE0F
:10E6E0000D9B02A8009394E806000C9BFFF77FFFA8
:10E6F0000298BDF80C10044A0CF076FFAAE70FB0A0
:10E70000F0BD00BF54100020D5E0000082B037B546
:10E7100002AD05E90600BDF82020BDF804104FF455
:10E720007A750A44009907930B4492FBF5F105FBB7
:10E7300011220B440360828003B0BDE8304002B078
:10E74000704773B502AD05E90600BDF804504FF4FB
:10E750007A715D43009EB5FBF1F206FB032301FBDA
:10E7600012520360828002B070BD30B50B1E87B0BC
:10E7700002460CDD048AC1684FF47A700B4494FBA6
:10E78000F0F10B4400FB1141D360118211E0002134
:10E79000ADF81410059902AD009102F10C04284661
:10E7A00094E806005B42FFF722FF95E8030084E847
:10E7B0000300002007B030BD37B50D46044668465B
:10E7C000FFF7B6FD002D01DC002010E0E268009BA1
:10E7D000208A9A42BDF8041002D3F5D18842F3D2C0
:10E7E0002046FFF7C9FC0028F0D14FF0FF3003B0FE
:10E7F00030BDF0B587B00446C76AC66904A8FFF704
:10E8000097FD059B02AD00932846049B394632468E
:10E81000FFF7A2FE95E8030004F10C0383E8030070
:10E82000228C1C3424F80C2C93E8030084E80300A9
:10E83000002007B0F0BD70B586B0044604A8FFF70D
:10E8400077FD049BE168BDF814208B42208A02D337
:10E8500006D1824204D2E169208C99421DD31AD09C
:10E86000059B2646009302AD56F81C2FE16A049BD7
:10E870002846FFF771FE95E8030086E80300636A07
:10E88000284696E806000C34FFF7FEFB95E80300E7
:10E8900084E8030001E09042E2D2002006B070BD9F
:10E8A000064BD3F8D0223AB1D3F8D4120A44C3F8B5
:10E8B000D4220022C3F8D022704700BFE03C0020E1
:10E8C000024B012283F8E122704700BFE03C0020A8
:10E8D000024B012283F89923704700BFE03C0020DF
:10E8E00007B50A4628B1074B0749022818BF0B464F
:10E8F00000E0064B0090064904200BF06BFD03B0CE
:10E900005DF804FBAEF8010093140200870C0200CE
:10E91000B6F801002DE9F04F85B00D4604460CF025
:10E9200013FE434B0026D3F8B422DFF81481B5FB65
:10E93000F2F702FB17578246EF1B9B463546D8F885
:10E9400008309F4227D3574525D8DBF8B422FB1A5D
:10E95000B8F80E10B3FBF2F3B8F80C2001EB830308
:10E96000934218D8334A0DF1040952F8250009EBF7
:10E970008501184404220CF019FD59F825300133A3
:10E9800005D12D493A4603200BF024FD03E0012375
:10E99000AB401E43F6B20135032D08F11008CED16D
:10E9A0002760072E34D8DFE806F03A0406080B0D7E
:10E9B0000F16019B0CE0029B0AE0019B029A05E006
:10E9C000039B05E0019B00E0029B039A934229D13F
:10E9D0006360012028E0019A0299501A43424341A2
:10E9E0000398814204BF43F00203DBB2824208BFB6
:10E9F00043F00403072B0DD8DFE803F01406040CE2
:10EA0000060C0C09616000E0626002200CE06260AC
:10EA1000002009E0094902200BF0DCFC02E04FF085
:10EA2000FF3001E06FF0010005B0BDE8F08F00BFDE
:10EA3000E03C0020A4FD0100ECF8010020F90100F9
:10EA4000E01500202DE9F0418EB004AC06462046CA
:10EA5000FFF76EFC3369334F06AD0093D7F8A81269
:10EA6000F368D7F8AC222846FFF776FDD7F8A8124E
:10EA70000AA80022FFF750FC0B9B02AF0093384618
:10EA800095E806000A9BFFF7B2FD97E8030085E8CA
:10EA9000030094E8030095E80C00B769FFF77CFDDC
:10EAA00020BBB36A002B16DD06F12C020CA806CAA7
:10EAB000FFF747FE0D9B0DF12008009395E8060037
:10EAC0000C9B4046FFF722FE94E8030098E80C00F8
:10EAD000FFF778FD50B906F10C0594E8030095E8BE
:10EAE0000C00FFF759FD80B1002017E00E483946B1
:10EAF0000AF03FF84FF0FF3010E03046FFF73CFBE4
:10EB00000028F3D07B68013B7B6095E8030094E824
:10EB10000C00FFF741FD0028EFD1E5E70EB0BDE89E
:10EB2000F08100BFE03C002038070020F0B587B03E
:10EB30000C460546FFF75DFE144B002CB8BF64423F
:10EB4000D3F8B422A4B294421F461BD3104C04F154
:10EB50003006A189D7F8B42210398908514304A896
:10EB60000022FFF7D9FB059A049B009205F10C02E5
:10EB700006CA02A8FFF73BFD029A103444F8082C9D
:10EB8000B442E6D1002007B0F0BD00BFE03C002059
:10EB9000E015002010B50C4CB4F8DC3253B103F092
:10EBA0007FFAB4F8DC320A2280FB030100230FF065
:10EBB000B3FC01E003F074FAD4F8D442044403F047
:10EBC00087FA204610BD00BFE03C00202DE9F0434D
:10EBD0000469ADB0064634B9022048490BF0FAFB8F
:10EBE0004FF0FF3087E000F10807384603F0BEFC25
:10EBF00000287DD1424B93F8B02498460AB109F021
:10EC00008FF9FFF7C7FF03126073A3730314000E9D
:10EC1000E37320740CF098FC04F1130103F0F4FE8C
:10EC20000C238DF81830238904F10B09ADF81A3044
:10EC30002368002506A83349CDF828908DF82430A4
:10EC40008DF8195003F032FD06282DD1A37A013B2F
:10EC5000DBB2A3725BB2AB4205DC21462A4809F065
:10EC600088FF02243EE00DF110094846FFF760FBE3
:10EC70002A460CA81421FFF74FFB0D9B02AD009311
:10EC800099E806000C9B2846FFF740FD95E8030035
:10EC900087E80300B3892289009303201B49B368E6
:10ECA0000BF098FB01241DE063680420013B6360C6
:10ECB000174922890BF08EFB2668B5420BDA402DEE
:10ECC00009D00CAB03EB450019F8052011490BF0F6
:10ECD000AFFC0135F1E765681DB90B48214609F025
:10ECE00048FF002498F8B03423B109F06BF801E034
:10ECF000012000E020462DB0BDE8F08341F901007D
:10ED0000E03C0020E1E80000380700206DF9010038
:10ED100099F90100C5F901002DE9F04792B00746C5
:10ED20000CF070F9424901250D73424B3A691863A2
:10ED300099468A46DFF820813F4E002A47D198F84D
:10ED40000040A4B108A896F8EC12FFF7E5FA099B79
:10ED500006AC009397E806002046089B0837FFF7AB
:10ED6000D5FC94E8030087E8030028465DE088F8B6
:10ED70000050FFF70FFF314B0AAF18603846FFF71E
:10ED8000D7FA0CA896F8EC122246FFF7C5FA0D9BAD
:10ED90000EA8009397E806000C9B10AEFFF7B6FC98
:10EDA000304621462246FFF7B7FA0194029403AB9E
:10EDB00096E8030083E80300214B224905930F9B4B
:10EDC0002A46009320480E9BFFF70EFA1CE0FFF73F
:10EDD000E1FE1A4B96F8E4221B68C01A90421B4BC6
:10EDE0000DDD1A7896F8ED12914206D818490320E5
:10EDF00086F89A530BF0EEFA03E0013200E00022AD
:10EE00001A70002388F800309AF80C0068B1114C91
:10EE1000256B0CF0F7F8D9F83030C01A20F07F439A
:10EE20001D44034B00202563187312B0BDE8F08722
:10EE30004443002054430020E03C0020F81B002005
:10EE40006BE7000019ED0000CBF901002816002047
:10EE5000D6F901000443002029160020F8B50CF073
:10EE6000D1F8184F184E012333733863FFF792FE21
:10EE7000164C0546236803B92060154B2268D3F869
:10EE8000F0120A20AA1AB1FBF0F18A4208DD012132
:10EE900083F8981303200F49D3F8F4320BF09AFA51
:10EEA000337B256063B10C4C256B0CF0ABF83B6BEE
:10EEB0000022C01A20F07F431D44034B25631A73C0
:10EEC0000020F8BD5443002044430020F41B0020E0
:10EED000E03C0020E7F90100044300202DE9F04F59
:10EEE00085B00CF031FB04460CF08CF84C4FDFF889
:10EEF00058B101238BF80C30D7F8B432DFF844A1B5
:10EF0000B4FBF3F603FB1646CAF83000FFF742FEE7
:10EF1000A61B4FF00008434C0190C7F8CC02C7F87D
:10EF2000D862029603904546B9463F4FDFF81CA1D0
:10EF3000EA5D42B15AF808004FF400610CF047FA5C
:10EF40001022E281A281394A12780AB97A5DC2B1EF
:10EF5000029A2146A2605AF8080010220CF04EFADC
:10EF6000334AE1891278C1F500619200B1FBF2F0F9
:10EF700002FB10122F48C2F5006220F81520002273
:10EF80007A555AF80830A0890422184403A90CF0D5
:10EF900035FAA389274A043332F815209BB29A42E6
:10EFA000A3813CBF01237B550135032D08F10408E3
:10EFB00004F11004B9D11D4B1A780AB100221A705D
:10EFC000D9F8A832B6FBF3F203FB1263D9F8AC22EE
:10EFD000934210D1184A1949137801EBC30041F844
:10EFE0003360019901334160032193FBF1F101EB9F
:10EFF00041015B1A13709BF80C306BB1104C256B00
:10F000000CF000F80F4A136B0022C01A20F07F4367
:10F010001D440D4B25631A73002005B0BDE8F08F29
:10F02000E03C0020E0150020DC150020F01B002053
:10F03000440700202A160020FC1B00201016002088
:10F04000044300205443002044430020A4FD010059
:10F050002DE9F04FD1B00569FFF79CFDB44C804617
:10F0600094F8B83213B90220B24906E0B24809F068
:10F070006CFD064630B9B14902200BF0ABF94FF0F8
:10F08000FF3023E20CF060FAD4F8A812814618A8E9
:10F09000D4F8AC72D4F8B4B20991FFF749F9199BCE
:10F0A0000DF1480A00933A46189B50460999FFF71C
:10F0B00053FA94F8B872D4F8B032B3FBF7F30B9369
:10F0C000002D3CD12A461AA8D4F8A812FFF724F93B
:10F0D0001B9B0EAD009328469AE806001A9BFFF78B
:10F0E00086FA95E803008AE80300129D0DF1780B7B
:10F0F0005846FFF71DF99AE803009BE80C00FFF75C
:10F100004BFAB0B1B7B11CA80B990022FFF704F974
:10F110001D9B0DF1380B009358469AE806001C9B86
:10F12000013FFFF7F3FA9BE80300FFB28AE8030010
:10F13000DCE757B9824904200BF04CF9C5E1B9FB73
:10F14000FBF50BFB1595C5EB090594F8DEA2BAF1AA
:10F15000040F94BF534605230A93D4F8B4320D9399
:10F160000A9B63B103F1FF3B714B93F8DF3203FB62
:10F170000BF2082A05D9082292FBF3FB01E0DDF827
:10F1800028B04FF0000ACDF830A00C980A9B9842A6
:10F1900036D034AA02EB0A0029460992FFF7BAFBDF
:10F1A0000230099A04281ED8DFE800F0171403077C
:10F1B0000A005244D2F804801AE00420614901E0B8
:10F1C000614903202A460BF005F950AA524452F82F
:10F1D0006C8C0DE003205D4901E05D4902202A4668
:10F1E0000BF0F8F834AA42F80A505244C2F80480EE
:10F1F0000C9B0AF1080A01330C930D9BED1AC4E72E
:10F20000B4F86E3277605A1CA4F86E22349A3381B7
:10F21000DDF8D4800323B3720A9200235B450DD03E
:10F22000DA0034A810440246D2684068013350AD79
:10F2300005EB8301821A41F8A82CEFE704238DF82F
:10F24000F83013228DF8FE3042486D238DF8FF30E0
:10F250008DF8F92010F007F90D238DF80431FD2306
:10F260008DF8053100284FF011038DF806310DDDC2
:10F2700050A901F8390D421EA3185B7E12F1FF322E
:10F2800001F8013FF8D242AD054403E000238DF8B8
:10F29000073142AD304B50A84B442BA940F8FC3D00
:10F2A0000FF07EFC01232E932BA800232D932C938B
:10F2B0002B930FF085FDDFF8A4904FF0440CAB1CAE
:10F2C00081444FF06D0A85F800C085F801A0194609
:10F2D0004846CDF81CC0089303F096FB089B0246F5
:10F2E0001D18494616A80992FFF714FB099A089BB6
:10F2F000DDF81CC005F1090903F802C013236B7087
:10F30000179B1A12AB70EA701A141B0E6B71D4F8AB
:10F31000B4322A713B2B4FF0040321D88622AA7104
:10F32000EB7185F808A00A98494603F0DCFA20E062
:10F33000E03C002012FA0100380700204AFA0100E0
:10F3400068FA010095FA0100B8FA0100F3FA010029
:10F3500012FB0100F93C00200027E25000D91DAF4C
:10F360008422AA71EB7185F808A00A98494603F037
:10F370004BFB4844842394F8DF52037013238370BB
:10F3800083720BFB05F30422023342700272932254
:10F39000C8F307214272C3724E4AD4F8B4320171E5
:10F3A000C8F3074180F8038041714FEA18688D2146
:10F3B000934280F80680C17105D90132B3FBF2F3A4
:10F3C000DBB2032213E0B3F5616F06D34FF4616241
:10F3D000B3FBF2F3DBB2022209E03B2B05D93C225E
:10F3E000B3FBF2F3DBB2012201E0DBB2002294F8BE
:10F3F000E0E205F00F0141EA8E1141EA02120273C8
:10F40000437300220E305A4515D024AB03EB820E15
:10F410000023AB4200EB03010AD2042B08D0DEF834
:10F420000C104FEAC30C41FA0CF1C1540133F0E760
:10F4300001320846E7E73EA9451A2A4606F10B00C5
:10F440000FF0E7FB356094F8B03407F1FF39022B79
:10F4500003ACDFF89C80204F17D1204B19681D4664
:10F4600011B11F4809F085FB1E4B2E604FF47A7ACC
:10F4700020AD2846C6F804A00B9900221E60FEF7B6
:10F480004BFF0B980AFB00F309E022AD002228464F
:10F490000B99FEF741FF0B9A4FF47A735343019394
:10F4A000CDF8089095E8030084E80300139B0E490B
:10F4B0000093CDF81480129B0C483246FEF794FE60
:10F4C0000146386014A8FEF70BFF002051B0BDE8DC
:10F4D000F08F00BF7F510100E41B0020D8150020F1
:10F4E00038070020E81B0020CDEB000037FB0100AF
:10F4F00045EA0000F0B591B00AAC2046FEF718FFCF
:10F500000CA800214FF49672FEF706FF0D9B08A889
:10F51000009394E806000C9BFFF7F8F81E4BD3F815
:10F52000C834092B08D90A25B3FBF5F34FF47A75D3
:10F530005D43A5F52F7501E04FF4FA75174E0EAC3B
:10F54000002120460A463768FEF7E6FE01950025B1
:10F55000029503AB94E8030083E80300104B3A469E
:10F560000593099B0F4900930F48089BFEF73CFE4B
:10F570000E4B0146186006A8FEF7B2FE33680C4930
:10F580001A89BDF81C3004200093069B0AF022FF64
:10F59000284611B0F0BD00BFE03C0020E81B002071
:10F5A0006BE70000CDEB000037FB0100E41B0020FF
:10F5B00040FB01002DE9F04F594C9BB007A8FEF726
:10F5C000B7FED4F8B0320420009394F8B83255490D
:10F5D0000193D4F8A832029394F8DE32039394F89E
:10F5E000DF320493D4F8AC22D4F8B4320AF0F2FE3D
:10F5F000D4F8A82232B902204B490AF0EBFE4B4B5B
:10F60000C4F8A832D4F8B022454D4AB9D5F8A8328A
:10F61000022047490AF0DEFED5F8A832C5F8B0321C
:10F62000D4F8B4223E4D4AB9D5F8A8320220414957
:10F630000AF0D0FED5F8A832C5F8B43294F8B82252
:10F640003AB902203C490AF0C5FE354B042283F842
:10F65000B8220BF079FF94F8DE328046374F03B9B9
:10F6600001233B7097F80090354B4FEA89094FF41E
:10F670000062B2FBF9F2334E1A6000259A46DFF8B9
:10F68000E0B010225BF8250031460BF08FFE2E4BC8
:10F6900032689B469A4206D02C492D4A2B460320BD
:10F6A0000AF098FE60E07268D4F8B4329A4208D04A
:10F6B0008DE80C002749264A2B4603200AF08AFED3
:10F6C00052E0B368984504D2CDF800800320224967
:10F6D0001BE0F1893878C1F5006E8000BEFBF0FCBC
:10F6E00000FB1CE0C3EB0803B3FBF2F3C0F50060C2
:10F6F000013380B2DFF86CE001EB830383422EF824
:10F70000150006D9154900950320114A0AF062FE3A
:10F710002AE00135032DB38106F11006AFD14CE08C
:10F72000E03C00206BFB010001FC01008051010066
:10F7300020FC010044FC010066FC0100440700209D
:10F74000EC1B0020E0150020494E44588AFC0100C3
:10F7500097F80100B3FC0100F7FC010042FD010035
:10F76000A4FD01002A160020644D0026644B4FF4CE
:10F77000006153F826000BF02AFED4F8B4320322BD
:10F780006B60DAF80030C5F800B0B3FBF2F303FBAE
:10F7900009F373430136102B38BF10239BB29642F6
:10F7A000AB81EB8105F11005E0D11822554800210D
:10F7B0000FF038FA544B01221A705448002102F01D
:10F7C000A9FC5348002102F0C9FC02F081FC4FF46F
:10F7D000C06050490AF0CAFBD4F8A832D4F8B41279
:10F7E0000DF1340899422ABF4B4B0022D3F8AC22CA
:10F7F000089B0BA80093079BFEF7AEFE0026404631
:10F80000D4F8B41200224FF0FF37FEF785FD03ADA8
:10F810000196029798E8030085E803003F4B4049B2
:10F8200005930C9B324600933E480B9BFEF7DCFC95
:10F8300015A81996FFF70CFC089B09A80093D4F8AB
:10F84000A812079BD4F8AC220DF13C08FEF784FE09
:10F850004FF0010A4046D4F8A8123246ADF828A06D
:10F86000FEF75AFD0196029798E8030085E8030029
:10F87000DFF8D0900A9B2C490093CDF81490099B97
:10F880002A485246FEF7B0FCD4F8F412A9B10DF1A3
:10F89000440840463246FEF73FFD0196029798E83D
:10F8A000030085E803000C9BCDF8149000932048DA
:10F8B0000B9B20493246FEF797FCD4F8E862D6B19C
:10F8C00013AC314620460022FEF726FD4FF47A7332
:10F8D0005E434FF0FF330293019694E8030085E8FE
:10F8E0000300154B154805930C9B15490093002206
:10F8F0000B9BFEF779FC1BB0BDE8F08FE0150020F4
:10F90000A4FD010010160020F01B0020C1E800003B
:10F91000D1E80000A1E80000E03C00202DEB000051
:10F92000DDEE00007BFD010051F0000085FD0100CF
:10F9300092FD01005DEE000037E800009BFD010034
:10F9400019ED0000F3E7000002F0AABB07B50A4674
:10F9500028B1074B0749022818BF0B4600E0064BA9
:10F960000090064904200AF035FD03B05DF804FB61
:10F97000AEF8010093140200870C0200B0FD0100F4
:10F9800007B50A4628B1074B0749022818BF0B469E
:10F9900000E0064B0090064904200AF01BFD03B06E
:10F9A0005DF804FBAEF8010093140200870C02001E
:10F9B000E9FD010030B5D1B00BF0C6FD0B4C05469A
:10F9C000B4F8173001A8ADF80430D4F81130CDF8F0
:10F9D0000630A37D8DF80A30637D8DF80B3006F07C
:10F9E000F1F828B14FF0FF30CFE100BFE03C00203C
:10F9F00004F10C0006F0F4F80028F3D104F10E0035
:10FA000006F0FAF80028EDD14FF4827006F003F901
:10FA10000028E7D194F8240306F00AF90028E1D180
:10FA200094F8940306F00FF90028DBD1022006F0C9
:10FA300015F90028D6D1012006F01BF90028D1D1F4
:10FA400094F8263001958DF808300DF1090204F183
:10FA5000190304F1250153F8040B8B4242F8040BFF
:10FA6000F9D11B78137094F8283094F834108DF87D
:10FA7000163094F829308DF81F108DF8173094F84F
:10FA80002A3094F835108DF8183094F82B308DF812
:10FA900020108DF8193094F82C300DF1BD018DF83F
:10FAA0001A30BB4B1A4652F8060B1288CDF81B00D1
:10FAB000ADF821201A89D868ADF8232094F84420A5
:10FAC000CDF825008DF82D2094F84D2018698DF87B
:10FAD0002E2094F84E20CDF829008DF82F20B4F870
:10FAE0005422ADF83020B4F87222D3F82802ADF8D1
:10FAF0004620B4F87422CDF83200ADF84820D3F88F
:10FB00002C02B4F87622CDF83600ADF84A20D3F8AE
:10FB10003002B4F87822CDF83A00ADF84C20D3F892
:10FB20003402B4F87A22CDF83E00ADF84E20D3F876
:10FB30003802D4F87C22CDF842001492D3F878022F
:10FB4000D4F88C22CDF85E001592D3F87C02D4F85C
:10FB50009422CDF862001692D3F88002B4F898226D
:10FB6000ADF85C20CDF8660094F8B822D3F8840292
:10FB70008DF86E2094F8C022CDF86A008DF87320BD
:10FB8000D4F8C422D3F88C021D92D4F8C822CDF840
:10FB90006F001E92D4F8CC221F92D4F8D422209267
:10FBA000D4F8D822219294F8DE228DF8882094F897
:10FBB000DF228DF8892094F8E0228DF88A20B3F8AE
:10FBC000AC22ADF88B2094F8E1228DF88D2094F8CA
:10FBD000E2228DF88E2094F8E3228DF88F2094F89D
:10FBE000E4228DF8902094F8EC22D3F8B8028DF836
:10FBF000952094F8ED22CDF891008DF8962094F898
:10FC00001823D3F8C0028DF89F20B4F81C23CDF838
:10FC10009700ADF8A02094F89423D3F8C4028DF88F
:10FC2000AA2094F89523CDF89B008DF8AB2094F88A
:10FC30009623D3F8F0028DF8AC2094F89723CDF8F2
:10FC4000A2008DF8AD2094F89823D3F85C038DF8CA
:10FC5000AE2094F89A23CDF8A6008DF8AF20D4F802
:10FC60009C232C92D4F8A0232D92D4F8B0232E926A
:10FC700094F8B4238DF8BC2003F2853203F2A1334B
:10FC800052F8040B9A4241F8040BF9D113880B8007
:10FC9000404B9A7858688DF8DD2094F868241988CC
:10FCA0008DF8E620B3F89220CDF8DE00ADF8E7201D
:10FCB000B3F894209868ADF8E920B3F89620ADF831
:10FCC000DB10ADF8EB2094F8702403F1A8018DF857
:10FCD000ED20B4F87824CDF8E200ADF8EE203CAA8F
:10FCE00003C982E80300B4F8882440F22911ADF872
:10FCF000F82094F88E248DF8FA20B3F8B420ADF8EB
:10FD0000FB20B3F8B820ADF8FD20D3F8BC00B3F861
:10FD1000BA20CDF80101D3F8C000ADF8FF20CDF82E
:10FD20000501D3F8C40094F8B024CDF80901D3F844
:10FD3000C8008DF81921CDF80D01D3F8CC0094F846
:10FD4000B124CDF81101D3F8D0008DF81A21CDF8E7
:10FD50001501D3F8DC0094F8B224CDF81D01D3F8D6
:10FD6000E0008DF81B21CDF82101D3F8E40094F8D0
:10FD7000B324CDF82501D3F8E8008DF81C21CDF887
:10FD8000290101A805F083FFC01751B030BD00BFA5
:10FD9000103D0020B84000202DE9F04304698FB0E9
:10FDA000054634B902203E490AF014FB4FF0FF30FB
:10FDB00072E000F10807384602F0D8FB002868D14D
:10FDC000384B93F8B02499460AB108F0A9F8A289F3
:10FDD0002369ADF822206268DFF8E0E08DF82C207E
:10FDE0003149324A4FF00408734508BF11460026D6
:10FDF00008A88DF820800C938DF8216002F056FC45
:10FE000006282DD1A37B013BDBB2A3735BB2B342C7
:10FE100005DC2146264808F0ACFE022433E00DF153
:10FE200010084046FEF784FA324606A81421FEF771
:10FE300073FA079B02AE009398E80600069B3046D3
:10FE4000FEF764FC96E8030087E80300AB89032013
:10FE5000009322681749AB680AF0BCFA012412E04B
:10FE6000A3684046013BA360134922680AF0B2FA36
:10FE7000A5683DB902F05CFB21460D4808F079FE0B
:10FE80002C4600E0344699F8B03423B107F09AFFCD
:10FE900001E0012000E020460FB0BDE8F08300BF84
:10FEA0001DFE0100E03C00204DF9000081F900003A
:10FEB0004807002049FE010075FE01000A1C0020D1
:10FEC0002DE9FF4704230370FD23437097238370BC
:10FED000734D1D23C37095F897130023019395F874
:10FEE000E13200316F4A18BF0121003318BF0123EE
:10FEF000526843EA410362F3C30306468DF80430B7
:10FF000001F062F90138052814D8DFE800F0030D8C
:10FF1000070707079DF80730012202E09DF8073028
:10FF2000022262F3010303E09DF8073043F003036C
:10FF30008DF807300DF1100858F80C0D4FF002093C
:10FF40006C2306F10A07737286F8089070600BF054
:10FF5000FBFA394602F0C0FC4FF00D0A3C1807F8D6
:10FF60000090FD27677084F802A06B7B0122E3708C
:10FF70002B7BA7712371032363710F23E3712B7C08
:10FF800010212372EB7B6372AB7B84F80B90A3721E
:10FF9000602327736373D5F89C33A373D5F89C3320
:10FFA00084F810901B0AE37374236774A374B5F884
:10FFB0008A344FF01109E374B5F88A3462751B0A6C
:10FFC0002375F123E375A775217695F84410A27681
:10FFD0006176E776237784F81D9095F82C304246B9
:10FFE000A37795F82A0095F8281002F0C1FA9A2311
:10FFF000002884F81FA084F8207084F8213084F849
:020000021000EC
:10000000229004F124020CDD84F82300431E1146E3
:1000100018F8034013F1FF3301F8014BF8D214181C
:1000200003E0002384F82330144695F82B0095F85C
:100030002910424602F09CFA0D232370FD236370C1
:100040009B23A37000284FF01003E37004F1050315
:100050000BDD2071421E194618F8024012F1FF32E2
:1000600001F8014BF8D2034401E00022227104227E
:100070001A70FD225A70E1229A701122DA70EA6B2E
:1000800003F108001A71EA6B801B120A5A71EA8F99
:100090009A7195F83F20DA7104B0BDE8F08700BF8F
:1000A000E03C00203044002038B51248124B05686F
:1000B000DA6B1249B3F86E32AA420C6802600B6028
:1000C00001D0A34205D10E4901200AF083F908F0BE
:1000D0007BF80C4C23789B0706D10B4B1A7E1AB188
:1000E000013A1A7609F0A4FF237800200133237027
:1000F00038BD00BF001C0020E03C0020041C002094
:10010000AAFE01005407002030440020F0B5364814
:10011000C3B008F01AFD044630B9022033490AF092
:1001200059F94FF0FF305DE0314B324D0361324BF6
:1001300003600EA8FFF7C4FE2269C1B228AB0EA867
:1001400002F0ACF860600320A07395F8C062002E46
:1001500040D0B5F870320AA85A1CA5F87022A381C5
:1001600095F8C032D5F8A872A360D5F8AC62FEF756
:10017000DFF80B9B39463246009308A80A9BFEF72E
:10018000EBF995F8C062D5F8B0720CADB7FBF6F795
:10019000394628460022FEF7BFF84FF47A735F43D2
:1001A000013E0197029603AB95E8030083E8030044
:1001B000124B13490593099B224600931148089B53
:1001C000FEF712F8104B0146186006A8FEF788F8F3
:1001D000002007E00D490AF0FDF80348214608F029
:1001E000C8FC304643B0F0BD48070020D7FE0100F0
:1001F0000A1C0020E03C0020FDFE0100110201006D
:1002000099FD000004FF0100981C00200EFF010072
:100210002DE9F0418EB004AC06462046FEF788F882
:100220003369334F06AD0093D7F8BC12F368D7F8A3
:10023000AC222846FEF790F9D7F8BC120AA8002293
:10024000FEF76AF80B9B02AF0093384695E806006C
:100250000A9BFEF7CCF997E8030085E8030094E8D1
:10026000030095E80C00B769FEF796F920BBB36A66
:10027000002B16DD06F12C020CA806CAFEF761FA67
:100280000D9B0DF12008009395E806000C9B40465D
:10029000FEF73CFA94E8030098E80C00FEF792F9A8
:1002A00050B906F10C0594E8030095E80C00FEF740
:1002B00073F980B1002017E00E48394608F059FC68
:1002C0004FF0FF3010E03046FDF756FF0028F3D026
:1002D000BB68013BBB6095E8030094E80C00FEF7A7
:1002E0005BF90028EFD1E5E70EB0BDE8F08100BF73
:1002F000E03C00204807002010B5064B01240220F6
:1003000083F8974309F0AAFC20460349BDE8104052
:100310000AF060B8E03C002043FF010038B500243B
:10032000E5B2FFF747FB68B1052D01D104F0A6FF48
:1003300001340A2CF4D1044902200AF04BF807F0EA
:1003400043FF2546284638BD5FFF010070B50BF01E
:10035000FBF80AF057FE2E4C2E4D0123A863A37321
:1003600005F02EFB264608B90BF0DEFEFFF7D6FFA0
:10037000294BD3F888221C46AAB1284903200AF049
:1003800029F8D4F888020BF0F1F8D4F88802FDF7C8
:10039000E1FFD4F88C22D4F888321344C4F88C32AC
:1003A0000023C4F88832D4F894321BB91A4AB2F93F
:1003B00090228AB1B4F99022194813440A22C4F851
:1003C00094325343D4F8C4225A4392FBF0F00BF01A
:1003D000DDF80023A4F8903201F064FA01F0BCF9D2
:1003E00010B1012384F89733022009F037FCB37B66
:1003F00063B10C4CA66B0AF005FEAB6B0022C01A71
:1004000020F07F431E44024BA6639A73002070BD08
:100410004443002054430020E03C002082FF0100C0
:10042000805101000443002070B50646BEB020484C
:1004300008F08BFB044620B91E49022009F0CAFFD0
:1004400033E01D4B08AD03611C4B03600AA8FFF7A6
:1004500037FD2269C1B224AB0AA801F01FFF184A78
:100460006060B2F8703206A8591CA2F87012A3811D
:100470000323A3730123A360FDF75AFF00210A465B
:100480002846FDF749FF00230293019603AB95E848
:10049000030083E803000B4B0B480593079B0B49B4
:1004A00000932246069BFDF79FFE3EB070BD00BF45
:1004B00048070020D7FE01000A1C0020FDFE0100B5
:1004C000E03C00206BE70000A3FF010099FD000065
:1004D0002DE9F04F684C97B008A8FDF729FFD4F834
:1004E000BC320420009394F8C03264490193D4F8DC
:1004F000C422D4F8C83209F06DFFD4F8BC226AB91E
:10050000D4F8A8320220C3EBC3035D4909F062FFAF
:10051000D4F8A832C3EBC303C4F8BC3294F8C022A9
:100520003AB90220574909F055FF534B012283F88D
:10053000C022FFF7F3FE0221534A0023A2200AF053
:1005400075FEC0B20AF0A6FE0AA8D4F8C462D4F8B8
:10055000C852FDF7EDFE0B9B31462A460CAF0093C7
:1005600006A80A9BFDF7F8FF00263846D4F8C41207
:1005700000224FF0FF39FDF7CFFE03AD0196CDF815
:10058000089097E8030085E80300404F079B059714
:1005900000933F48069B3F493246FDF725FED4F8BD
:1005A000BCB2DFF8D4A0B846BBF1000F24D00EA82F
:1005B000DAF8AC72FDF7BCFE0F9B3A46009306A832
:1005C0000E9B594610AFFDF7C7FF3846DAF8BC124C
:1005D0003246FDF7A1FE0196CDF8089097E803009A
:1005E00085E80300079BCDF8148000932A48069BFA
:1005F0002A493246FDF7F8FDD4F8A8223AB902207C
:10060000274909F0E7FE274A1B4BC3F8A82294F8B4
:10061000B044194E002C2CD1D6F8A872089912A813
:1006200001EB47012246D6F8AC92FDF775FE139B0D
:100630003946009306A8129B4A46FDF78DFFD6F86F
:10064000A81214AF384649002246FDF765FE4FF068
:10065000FF330293019497E8030085E80300079BAA
:10066000CDF8148000931048069B10492246FDF7F0
:10067000BBFD17B0BDE8F08FE03C0020AFFF0100EC
:10068000060002002A000200F9020100F3E7000060
:10069000490002004D030100520002000D0101005B
:1006A00001FC01008051010059000200A900010075
:1006B0007047000008B5034B1B6803B19847002042
:1006C00008BD00BFD81C002073B500250646019563
:1006D0000AF03AFF01460D4802F0DAF902AC01389F
:1006E0000B4A44F8080D94E803000CCAFDF754FFC8
:1006F00038B106F10C0394E8030083E803002846B0
:1007000001E04FF0FF3002B070BD00BFB01C002010
:10071000C41C002070B500F1080588B004692846A3
:1007200001F024FF002842D12378052B04D0072BA9
:1007300006D10420214901E02149042009F04AFEA4
:1007400004F1190323612046002101F0AFFF0628C0
:100750001DD1237E013BDBB223765BB2002B28DD6B
:1007600004AE3046FDF7E4FD06A814210022FDF793
:10077000D3FD079B02AC0093204696E80600069B3B
:10078000FDF7C4FF94E8030085E803000FE00328A9
:1007900011D10523237063780222002562F301033F
:1007A000637025732046294601F080FF03E0012095
:1007B00002E0022000E0002008B070BD66000200E8
:1007C0008700020010B5124B124A00241460B3F8DF
:1007D0006C2286B0511C83F8B443A3F86C126846AF
:1007E00002232146ADF802208DF800308DF801403B
:1007F0008DF80C4001F05AFF074B084A0849A04207
:1008000008BF1A46042009F0E5FD204606B010BDD9
:10081000E03C0020D81C0020870C0200970002005A
:100820009D0002002DE9F04F002397B006460830E6
:10083000079301F09BFE0446002840F08E80494D4E
:100840000CA805F124033361296A22464FF0010BFD
:1008500085F805B0FDF760FD96E806000D9B0DF1EB
:1008600020090DF13808009348460C9BFDF74EFF18
:10087000404621462246FDF74FFD03AF0194029406
:1008800098E8030087E80300DFF8F8A0099B2246F8
:1008900000933549089BCDF814A03448FDF7A4FC1B
:1008A0003168E860043105F1140002F0F1F816AB8C
:1008B000013843F8400D93E8030005F128030CCB01
:1008C000FDF76AFE8046C0B10DF140084046214662
:1008D0002246FDF721FD0194029498E8030087E881
:1008E0000300234B23480593079B2349009322468B
:1008F000069BFDF779FCA86025E012A8296A5A46F4
:10090000FDF70AFD96E80600139B0AA8009314ACB5
:10091000129BFDF7FBFE204641464246FDF7FCFCDC
:10092000CDF80480CDF8088094E8030087E8030040
:100930000B9BCDF814A0009310480A9B1049424627
:10094000FDF752FC286199E8030002F095FC30465F
:1009500017B0BDE8F04F01F035BF012017B0BDE87A
:10096000F08F00BF9C1C0020450A0100AF00020070
:10097000C9060100BE00020025080100CE000200E9
:10098000890901006BE7000070B50E4E73791BB149
:1009900001F01AFFA8B970710B4D002455F8040B33
:1009A000FDF786FC30B903200849224655F8043C7F
:1009B00009F010FD01340020032C45F8040CEDD1A2
:1009C000307170BD9C1C0020A41C0020D7000200C8
:1009D0007FB50F4E0225D6F888028DF807500AF031
:1009E000C5FD4FF4106301210024ADF808302A46FC
:1009F0000DF1070302A88DF80A100393C6F8884288
:100A000009F05CF907F0E0FB204604B070BD00BFC0
:100A1000E03C0020072812D8DFE800F0041111069E
:100A20000606060D022207E0054B0422002083F88B
:100A30002620FFF7A9BF0322014B83F82620704729
:100A40009C1C002013B501F0BFFE044650B9074BB3
:100A50005871074B6846D3F8E0330093054B019378
:100A600008F044FE204602B010BD00BF9C1C0020D0
:100A7000E03C0020150A01000148024901F06ABD6E
:100A800021120100B10601002DE9F04305230B708E
:100A90004B780222002662F301038046DDB00C464B
:100AA0004B700E730325304698F80C30AB424BD98F
:100AB000D8F810006946284401F089FC2C49814689
:100AC000BDF8002004209DF8023009F083FCB9F144
:100AD000000F4ADBD8F810101CAFB81929444A4659
:100AE0000EF097F85FFA89F99DF802304D444E44B4
:100AF000EDB2F6B2DBB9B1466FEA09010136BB19B6
:100B00006846C9B20122019309F062F900282CDD80
:100B1000BDF80030B3F5837F05D1019B1A7812B17F
:100B200018460EF0A0FCF6B207F8090007E0714283
:100B300037446846C9B20122019709F049F90028F3
:100B400013DD0644F6B2AFE778B11CA8314604F1D4
:100B5000190202AB01F0A2FB002806DD0723237077
:100B6000637820736FF3010363705DB0BDE8F083B9
:100B70001E01020073B505230B704B78022200257D
:100B800062F3010306460C460D734B70337BAB4298
:100B900038D930696946284401F037FC2844BDF84B
:100BA00000209DF80230C5B21C49042009F012FC57
:100BB000BDF80020A2F206339BB20F2B0AD9B2F582
:100BC000E06F07D047F601739A4203D040F2033337
:100BD0009A420FD1124B317993F84F30994204D198
:100BE0001049032009F0F6FB04E00F49022009F048
:100BF000F1FB10E068460021012209F05FF80028AF
:100C0000C4D008E0012009F029F8FFF787FB6378DA
:100C10006FF30103637002B070BD00BF45010200B5
:100C2000E03C00206D010200880102002DE9F04146
:100C300005230B7000230B734B78022262F3010330
:100C4000234E4B70D6F888820C46B8F1000F08D0BE
:100C50000320204909F0BEFB6378012262F30103FF
:100C600033E003691F787A0730D55A789D7807F00A
:100C7000030702EB0525DA781B7905EB0245012F06
:100C800005EB036510D0022F14D0FFB912492A4694
:100C9000042009F09FFB0AF057FC281AC6F88802C6
:100CA000637867F3010310E00C492A46042009F039
:100CB00091FB05E02A460420094909F08BFB6D42AF
:100CC000C6F88852637868F301036370BDE8F08169
:100CD000E03C0020B1010200FB0102000B02020017
:100CE0002B0202002DE9F041284C4288B4F86C3206
:100CF0000646013B9A4247D1052008F009FB07460A
:100D0000262008F005FB94F8B4330546022B94BF67
:100D1000184603200022D1B281420ADADFF878C0F7
:100D20004FF00A0808FB01C149680132A942F2D11B
:100D30002AE0022B04D9013384F8B433BDE8F081F2
:100D40000420767808F0E4FA94F8B4330A2202FB1F
:100D5000034206F03F067600C6F18206F6B282F83C
:100D6000BE03C2F8B573C2F8B95382F8BD6394F8F4
:100D7000B433013384F8B433054B1868FDF798FA9F
:100D8000044B1B6803B19847BDE8F081E03C0020AC
:100D9000CC1C0020D81C0020954000202DE9F043F9
:100DA000A7B006460C460AF0CFFB00230D930E9326
:100DB0003369074605200C9308F0AAFA80460F20F5
:100DC00008F0A6FAB368B3B1A34DD5F8881291B96B
:100DD0004FF47A72B0FBF2F2C2EB080282EA03012E
:100DE000090C090439B99A1AC5F888221AB10420E5
:100DF0009A4909F0EFFA6378002161F30103637007
:100E0000974B217319790522227091B106AD2846BE
:100E100083F82620FDF78CFA95E8030014AB83E8ED
:100E200003001846FFF7B0FD6378012262F3010367
:100E3000637001238DF85430736922AD5B6803F150
:100E4000100E186859682A4603C2083373451546C0
:100E5000F7D10DF1300909A90BABCDF800900C9832
:100E60000AAA01F0E4FA099B01461B780D2B25D153
:100E70000A9B1A78FD2A21D15B78192B1ED11028E4
:100E80001CD10B9801F070FB0B9B1AAD03F1100EF7
:100E9000186859682A4603C2083373451546F7D1C6
:100EA0000BABCDF800900C9809A90AAA01F0BFFA83
:100EB000099B80461B780D2B03D040E00320694935
:100EC00021E10A9B1A78FD2A39D15A789B2A36D11A
:100ED0009B78112B33D111AD00210B2228460DF048
:100EE000A1FE42460B9928460DF093FE4146284646
:100EF00008F04EF9DFF86881014608F1240228461F
:100F000008F1250301F080FB002802DA032056498E
:100F1000F9E098F8242098F82530544900950420E9
:100F200009F058FA0BABCDF800900C9809A90AAA61
:100F300001F07DFA099B1B780D2B03D03FE00320C5
:100F40004B49E0E00A9B1A78FD2A38D15B78732B75
:100F500035D10B2833D10B9A414D1068516805F1FA
:100F6000140303C31189927A05F1140019809A7051
:100F7000394601F08DFD0DF1180807F50301A0F1C8
:100F8000030901F556414046002205F12807FDF707
:100F9000C3F998E803004A4687E80300354904206E
:100FA00009F018FA26AB43F8649D93E8030097E82C
:100FB0000C00FDF707FB28B103202F49A3E0032015
:100FC0002E49A0E00CAF0BAB00970C9809A90AAA18
:100FD00001F02DFA099B1B78022B1BD10A9B1A7872
:100FE000FD2A17D15B783C2B14D1022812D10B9B20
:100FF00023491A780420EA7709F0ECF90BAB009743
:101000000C9809A90AAA01F012FA099B1B78022B75
:1010100003D01EE003201B4975E00A9B1B78242B9C
:1010200017D1022815D10B9B17491A8804202A6270
:1010300009F0D0F92B6A0C9803332B6209A90BAB8A
:1010400000970AAA01F0F3F9099B1B78012B1FD026
:101050003FE003200D4956E0E03C00205102020031
:101060009C1C00207E020200B9020200E70202007E
:10107000FE0202003A030200600302009503020030
:10108000CC030200DC030200160402002904020063
:101090000A9B1A78FD2A1CD15B78222B19D10128D2
:1010A00017D10B9B1A78169212B903203B492AE0FC
:1010B0003B49042009F08EF90CAB00930C980BAB64
:1010C00009A90AAA01F0B3F9099B1B780D2B03D0DB
:1010D00017E00320334916E00A9B1A78FD2A10D145
:1010E0005B78762B0DD104202F490B9A09F072F909
:1010F00073699B68B3F5C83F18930CD903202B493B
:1011000001E02B49032009F065F96378022262F3BC
:10111000010363703EE01699264EB3FBF1F2514392
:10112000994217923CBF01321792AF228DF864208A
:101130003268214D0132C5F8E02332601492179ACB
:1011400001210024A5F8662431718022002105F2D6
:10115000E630C5F8DC330DF065FDA5F8E44314A8CE
:101160000FAD08F0B3FA284621462246FDF7D4F821
:101170000194029403AB95E8030083E803000F4B4E
:101180000F4805930E9B0F49009322460D9BFDF7D8
:101190002BF8B06027B0BDE8F08300BF6504020003
:1011A00093040200A3040200DC04020023050200F1
:1011B000EB0402009C1C0020E03C0020C90601005A
:1011C000BE00020025080100054B1A7932B993F8D8
:1011D0002600022803D183F826207047012070479B
:1011E0009C1C0020014B83F8260070479C1C0020AB
:1011F0007FB50A4B1B68019343695B88013B0293EF
:10120000AF238DF81030037B0393036901A8059386
:1012100008F064FA07B05DF804FB00BF9C1C0020D6
:1012200070B5524D94B02C68064664B1638842880C
:101230009A4202D104204E4960E04E48214607F010
:1012400098FC00232B6033460EAC1836186859689A
:10125000224603C20833B3421446F7D1454807F08B
:1012600074FC044620B94449022009F0B3F87BE03D
:1012700000230370BDF83A309DF8382043800323E3
:101280000376D31E082B37D8DFE803F00536360E79
:101290003617202932003949042009F09BF80EA89E
:1012A0002146FFF71FFD2BE03549042009F092F895
:1012B0000EA82146FFF7E8FB22E03249042009F09E
:1012C00089F80EA82146FFF755FC19E02E490420A5
:1012D00009F080F80EA82146FFF7A8FC10E02B4982
:1012E000042009F077F80EA82146FFF757FD07E024
:1012F0000EA8FFF77DFF03E02549032009F06AF8F7
:101300002378002B2CD02C6008AD2846FDF710F870
:10131000204B0AA8D3F860220021FCF7FDFF0B9BAD
:1013200006A8009395E806000A9BFDF7EFF90CADBF
:10133000002128460A46FCF7EFFF002301930293A1
:1013400003AB95E8030083E80300134B13490593AF
:10135000079B224600931248069BFCF745FF03E0DB
:101360000448214607F005FC14B070BDD41C0020D1
:1013700058050200580700208C050200AC05020049
:10138000C5050200DC050200F80502000D0602009A
:101390001F060200E03C00206BE70000150701007B
:1013A000360602002DE9F0433F4ED5B006AC0223CD
:1013B0002370737B4FF0FD08E370337B4FF00D0912
:1013C0002371032363710F23E371337C06F119004A
:1013D0002372F37B84F801806372B37B84F80290FC
:1013E000A37284F806800EF03EF811230028074609
:1013F000054684F80B9084F80C8063730EDDA073AF
:10140000431E0DF12602F118497E13F1FF3302F855
:10141000011FF8D20DF127031D4403E00023A3733D
:101420000DF12705FDF7B6FB13236B700312EB706C
:1014300003142B710623A870AB714FF004086C23C2
:10144000000EEB7185F80080687108350AF07CF8B1
:10145000294601F048FA15490544404608F0BAFF0C
:10146000291B20AD2046C9B22A463AAB00F016FF30
:10147000002815DD02238DF80030B6F86C3200210B
:101480005A1C8DF80C006846A6F86C22ADF80230A4
:1014900004958DF8011086F8B41301F007F907469A
:1014A000384655B0BDE8F083E03C00204506020018
:1014B00070B500F1080488B0204601F057F80546E1
:1014C000C8B9FFF76FFF062817D104AE3046FCF706
:1014D0002FFF2A4606A80A21FCF71EFF079B02AD34
:1014E0000093284696E80600069BFDF70FF995E85D
:1014F000030084E80300012000E0284608B070BD26
:1015000010B58EB006AC84E80300002208A80321C1
:10151000FCF702FF099B0AA8009394E80600089BC9
:10152000FDF765F80CAC002120460A46FCF7F4FEF6
:1015300000220192029203AB94E8030083E80300C7
:10154000054B064905930B9B054800930A9BFCF746
:101550004BFE0EB010BD00BF6BE70000D1090100CB
:10156000610602002DE9F04196B00CAC0646FFF78B
:1015700019FF2046FCF7DCFE0EA81E210022FCF716
:10158000CBFE0F9B0AA8009394E806000E9B10ADBB
:10159000FDF7BCF828461E210022FCF7BDFE47F2ED
:1015A000305301930523029303AC95E8030084E8CC
:1015B0000300214B214805930B9B214900930022F6
:1015C0000A9BFCF711FE1F4B18609846002E2DD089
:1015D0001D4B08AD2846D221002212AF1E60FCF739
:1015E0009BFE3846FCF7A4FE099B06AE009397E8E5
:1015F0000600089B3046FDF789F896E8030085E869
:101600000300002114AD0A462846FCF785FE00229F
:101610000192029295E8030084E80300099B059279
:1016200000930A48089B0A49FCF7DEFDD8F8000041
:1016300016B0BDE8F08100BFB9E700006D060200FA
:10164000B1140100CC1C0020D81C00207906020037
:10165000B506010030B505468FB010B9FFF7B2F8F6
:1016600027E008AC2046FCF763FE0AA800212A46C2
:10167000FCF752FE0B9B06A8009394E806000A9B19
:10168000FDF744F80CAC00210A462046FCF744FE66
:1016900000220192029203AB94E8030083E8030066
:1016A000054B06480593079B05490093069BFCF7ED
:1016B0009BFD00200FB030BD6BE7000087060200E5
:1016C000C5070100000000002DE9F0472049214C2A
:1016D000B1F878240023A2FB0445B1F892244FF41A
:1016E0007A76002791F88EA4B61A67EB03074FF0BD
:1016F00000090022002388460AF10101894515D21C
:1017000004FB07F3A4FB060106FB05334FF47A72D2
:10171000194400230CF01CFF22462B46121A63EBDF
:10172000010309F1010904460D46E5E76424A2FB23
:10173000040104FB031104A3D3E900230CF008FF08
:10174000A8F89004BDE8F0878033E10100000000B4
:10175000E03C002080EE3600044BB3F88C04B3F874
:101760008834984234BF002001207047E03C0020BC
:10177000F8B5444B444A93F82A10444D52F82100DE
:10178000D3F894245543D3F8B4221AB14049B1FB9D
:10179000F2F100E01146D3F89844282666434E4300
:1017A0003C4F384AB6FBF7F62E4400283DD092F85D
:1017B000DE4292F8DF12013C4C434FF4FA512A34D6
:1017C0004C43D2F8A812B4FBF0F431B192F8B8222D
:1017D0002F4D6A43B2FBF1F200E00A46D3F8A05461
:1017E00005FB04F151432B4CB1FBF4F10E442A49A3
:1017F000B1FBF0F0D3F8BC1241B1224FDFF890C03A
:1018000097F8C0720CFB07F7B7FBF1F14543D3F82B
:10181000A474D3F85C024D4378430A444243B5FBB9
:10182000F4F52E44B2FBF4F42644D3F8C42252B1AA
:1018300014491A48D1F8A81441434FF47A7042432E
:10184000B1FBF2F21644CEB1B3F878344FF46164D0
:101850005C43134B4FF47A72D3E9000100230CF080
:1018600077FEE5174FF47A73B6FBF3F2201A65EBB7
:10187000010100230CF06CFE80B2F8BD4FF6FF7042
:10188000F8BD00BFE03C002064070020805101004B
:1018900000D68300A0860100C033070080DFE80285
:1018A0006041002070B509F04FFE614D0446D5F847
:1018B000803213B95F4808F0A3FED5F880329C420D
:1018C00005D35D4AE41AB4FBF2F4E4B200E000246C
:1018D00095F88E34A34203D3554BB3F8903453B9E3
:1018E000B5F89234524C33B1FFF7EEFE94F88E34D3
:1018F000013384F88E34D5F8C412D5F894344C4EA4
:1019000003FB01F006F59064D4E900231218B5F842
:10191000900443F1000341436420B1FBF0F15218FD
:1019200043F100030D20C4E9002307F00FFBD5F8B5
:101930009C340146C00B5843D4E90023121843F1EC
:101940000003C1F30E010D20C4E9002307F01AFBC8
:101950000C2007F0FBFAD5F898340146C00B584329
:10196000D4E90023121843F10003C1F30E010C2047
:10197000C4E9002307F006FB062007F0E7FAD5F8D4
:10198000A0340146C00B5843D4E90023121843F198
:101990000003C1F30E010620C4E9002307F0F2FAA8
:1019A000072007F0D3FAD5F8A4340146C00B5843FA
:1019B000D4E90023121843F10003C1F30E010720FC
:1019C000C4E9002307F0DEFA0E2007F0BFFAD5F8CD
:1019D000A8340146C00B5843D4E90023121843F140
:1019E00000030E20C1F30E01C4E9002307F0CAFA78
:1019F000B5F878341BB130CC54EA050204D1BDE807
:101A000070400E4808F0FCBD4FF47A72A4FB02014E
:101A100002FB05110A4AA3FB02230CF099FDC0F555
:101A20007A70A6F88804FFF7A3FEA6F88A0470BDB2
:101A3000E03C00208C0602008033E101B706020082
:101A400080EE360010F0010F2DE9F0470646384CC5
:101A5000384D1FD022782B78374F534013F0010AAE
:101A600006D009F0CFFA354BD8600123FB7011E0A6
:101A7000FB787BB1DFF8C880D8F80C9009F0C2FA87
:101A80002E4B87F803A0DB68C01A20F07F434B443D
:101A9000C8F80C30B20721D522782B78264F534056
:101AA00003F0020303F0FF0A33B109F0ABFA234B52
:101AB000186101233B7111E03B797BB1DFF8808035
:101AC000D8F8109009F09EFA1C4B87F804A01B6907
:101AD000C01A20F07F434B44C8F8103073071FD55D
:101AE00022782B78144E534003F0040303F0FF09CF
:101AF00033B109F087FA114B5861012373710FE07C
:101B000073796BB10E4FD7F8148009F07BFA0B4B49
:101B100086F805905B69C01A20F07F4343447B61DF
:101B200028782378BDE8F047584000F021B800BF7E
:101B3000E41D0020E51D0020444300205443002004
:101B400004430020044A137840EA030120EA03001A
:101B50001170FFF777BF00BFE41D0020034A137820
:101B600023EA000118401170FFF76CBFE41D00204C
:101B700010F0010F18BF00214FF0E90008BF01214C
:101B800009F0E4BA08B50021ED2009F0DFFA0620DB
:101B90000AF066F9BDE80840ED20012109F0D6BA47
:101BA00010B50021ED2009F0D1FA05200AF058F90E
:101BB00000200AF055F901210446ED2009F0C6FA8B
:101BC000204610BD38B5104B104A1B7800EB83003F
:101BD0000F4B52F8205053F8203098B2ED1A09F00C
:101BE0006CF9FFF7DDFF0446E3070AD54DB1FFF7B7
:101BF000D7FF044609F08EFB012009F05EF9013D94
:101C0000F2E7204638BD00BFDC07002000070200D5
:101C10006007020008B5FFF7B5FF0021ED2009F0CD
:101C200095FA01200AF01CF900200AF019F9BDE824
:101C30000840ED20012109F089BA000008B5A5206F
:101C4000012109F083FAEA20002109F0C1FAEC2011
:101C5000002109F0BDFA0121ED2009F0B9FAEB20CD
:101C600009F0ACFAE820012109F070FA0A2009F025
:101C700021F9064B01221A70054B1B78052B03D165
:101C8000BDE80840FFF7C6BF08BD00BFE61D002045
:101C9000DC07002010B5044618B1BDE81040FFF77E
:101CA000CDBF0C4B21461870E82009F04FFAEA200E
:101CB00009F07AFAEC2009F077FAED2009F074FACD
:101CC000EB2009F071FA2146A520BDE8104009F08B
:101CD0003DBA00BFE61D002008B50020FFF7DAFF7F
:101CE000002008BD2DE9F8431F4B81461B780E46A6
:101CF00014460BB9FFF7A2FF0020FFF763FF09F0BE
:101D000081F91A4F1A4D002138624FF00108ED2079
:101D100085F8088009F01AFA03200AF0A1F8C4F344
:101D200007400AF09DF8C4F307200AF099F8E0B2E2
:101D30000AF096F8314648460AF09EF8ED204146F2
:101D400009F004FA2B7A63B10A4CD4F8208009F028
:101D500059F93B6AC01A20F07F43434423620023B1
:101D60002B723046BDE8F883E61D00205443002066
:101D700044430020044300202DE9F84F8F180E46FD
:101D80001446054609F03EF9304A012151723049A6
:101D9000304B097858629A46934639B9FFF74EFF9F
:101DA0002D4B1B7813B90A2009F087F8BC4238D2B2
:101DB0000020FFF707FFFFF7E5FE0021ED2009F007
:101DC000C5F944F0FF0902200AF04AF809F10109B7
:101DD000C4F307400AF044F8B94528BFB946C4F334
:101DE0000720C4EB09080AF03BF8E0B20AF038F823
:101DF000284641460AF052F8ED20012109F0A6F9E3
:101E00000021ED2009F0A2F904200AF029F8ED20C4
:101E1000012109F09BF901204544FFF7D3FE4C4610
:101E2000C4E79BF809306BB10C4C656A09F0EAF81D
:101E3000DAF824300022C01A20F07F431D44034BFF
:101E400065625A723046BDE8F88F00BF44430020F7
:101E5000E61D002054430020DC070020044300203E
:101E60001D4B70B51B7805460C4646183BB9FFF76D
:101E7000E5FE1A4B1B7813B90A2009F01EF845EA53
:101E80000403C3F30B0323BBB44220D20020FFF7AB
:101E900099FEFFF777FE0021ED2009F057F9202089
:101EA00009F0DEFFC4F3074009F0DAFFC4F30720AE
:101EB00009F0D6FFE0B209F0D3FFED20012109F0CF
:101EC00045F90220FFF77EFE04F58054DCE7284642
:101ED00070BD4FF0FF3070BDE61D0020DC07002014
:101EE00038B50020FFF7D6FE09F0EAFF142008F00D
:101EF000E4FFFFF7A3FE052008F0DFFF0021ED203F
:101F000009F024F99F2009F0ABFF002009F0A8FF99
:101F10000446002009F0A4FF0546002009F0A0FFB8
:101F2000622C0ED005D81F2C16D0202C19D10322DC
:101F300013E0C22C07D0EF2C13D1134B00241C70DC
:101F400011E0012209E0252D0F4B03D1332801D1E7
:101F5000022203E0042201E005220B4B1A70002448
:101F600001E04FF0FF34ED20012109F0EFF8002CE3
:101F7000B7D1054B1B78052B01D1FFF74BFE034B67
:101F800001221A7038BD00BFDC070020E61D0020CA
:101F90000220014909F048BBD407002010B50446CF
:101FA000C0B209F085F9044B1B681BB1034A2046F7
:101FB0001168984710BD00BFEC1D0020E81D0020EF
:101FC00008B509F001FC08BD40B1438833B102688F
:101FD000034B1A6042685A6002891A81704700BF39
:101FE000E4070020104B10B51A6C91031AD55C6BF6
:101FF000620706D00D4B1B681BB10D4A11201168FA
:102000009847230706D40B4B1B681BB10A4A1120C3
:1020100011689847044B4FF400325A64DA6C22F48A
:102020000032DA6410BD00BF00C00840F01D00207F
:10203000F41D0020EC1D0020E81D002038B5154BD4
:102040009C6909F047FB18B11B20214609F048FBA9
:10205000A20706D5104B0F4A5969126901320A448A
:102060005A61E30706D50C4B0A4A59691269D243F3
:102070000A445A61094D2B6843B106484FF6FF7177
:102080000BF03CFA2B68984700232B60014B1C6235
:1020900038BD00BF0060084000110840F81D002056
:1020A000044BDA68A3F59E4359690A441A6118691A
:1020B000704700BF00600840034B044ADB68C01A49
:1020C0005061FFF7EDBF00BF0060084000110840FD
:1020D0000D4B1A78D0070AD50C4BD96C890306D45E
:1020E0004FF400315964D96C41F40031D96402F0E5
:1020F0000C020C2A06D1064B1868002802DBC0B27D
:1021000009F0C8B8704700BFE407002000C00840CD
:10211000E007002008B50C4B1B785A0712D50B4A74
:102120001B0710600A4A11600CD50023CF20022142
:10213000084A09F07BF8084B1860C0B2BDE80840B7
:1021400009F0A8B808BD00BFE4070020EC1D00207E
:10215000E81D00209D1F0100E0070020044B1B78B4
:102160009B0703D5034B1860034B1960704700BFF2
:10217000E4070020F01D0020F41D00200138C0B24B
:10218000042808B596BF044B0020185C034B1B685D
:1021900003B1984708BD00BFC0070200001E002021
:1021A0000E4BF0B51C5C0023A34215DA0C4D2E5CDF
:1021B0005D1895FBF4F704FB17553544EF1012F842
:1021C00007C0A5EBC7074CFA07F7FF0702D5AD1B01
:1021D000E8B2F0BD0133E7E70020F0BDC50702001B
:1021E0002709020030B5044687B0142007F090F8A4
:1021F0002178214AC0B200235578854204D19578D0
:102200008D4201D1DBB205E001330D2B02F1030257
:10221000F2D100238DF80030238AADF8023013B9D3
:10222000A37AADF80230E37A16208DF80130D4F8A5
:102230002831029304F12503049394F824308DF897
:102240000C3004F11803059307F062F801462620CC
:1022500007F056F80820D4F8281107F051F8237B2E
:10226000C3F303038DF80430044B1B680BB16846BD
:10227000984707B030BD00BF00090200FC1D0020D8
:1022800000F00F00431EDBB20C2B02D8024AD056DE
:1022900070470020704700BFC90702002DE9F74FC3
:1022A000804693461F460191002900F08B8000284C
:1022B00000F08880002A00F08580002B00F08280EA
:1022C00006F092FE00238146444603254FF0040A9F
:1022D0001E46062E59D8DFE806F004131D28335891
:1022E0003D0026783046FFF7CBFF7E55034694F934
:1022F0000000691C0028CDB2ACBF0226012644E0D4
:102300002078691C785594F90000CDB20028A8BF48
:1023100002263AE02078691C785594F90000CDB285
:102320000028ACBF062603262FE02078691C7855CC
:1023300094F90000CDB20028ACBF0626042624E0A4
:102340002078691C785594F90000CDB20028A8BF08
:1023500006261AE0002B0ADD20780AF10101013B74
:102360000BF80A0008BF00265FFA81FA0DE013F1AE
:10237000640F08D123780AF101010BF80A302378A1
:102380005FFA81FA01E0013C00260134019AC8EBB2
:10239000040191429DDBE91EF81C06F025FE013D7B
:1023A000C0F30723C0B27B70B8703D708BF800306B
:1023B0004FEA19238BF801008BF802308BF8039059
:1023C000504601E06FF0150003B0BDE8F08F38B55E
:1023D000044600780D46FFF753FF6378FF2B11D1B9
:1023E00000232B80A37810F1640F03F07F034FEAE2
:1023F00003232B80E27808BF00201344A8702B80B1
:10240000042038BD4FF0FF3038BD38B505460C46C6
:10241000FFF7DDFF002809DBA2782B1812B92A5C30
:102420000133A270A07863601844401B38BD2DE9C9
:10243000F8460024451C0E4691469A4620466F1EDB
:10244000062C2BD8DFE804F0040A11132A1D210002
:10245000376015F8010CFFF713FFC0B215F9013C06
:10246000002BACBF0224012418E0C9F8007015F954
:10247000013C002B11DB43B2643314BF0624052456
:102480000CE015F8010C062408E043B2CAF800700D
:102490001F44089B07241F6000E00324072C05F15C
:1024A0000105CCD140B2BDE8F886000013B51F4B42
:1024B00093F89A2393F8971393F89943003218BF2F
:1024C0000122002914BF04210021003418BF012477
:1024D00062F3451164F3861193F8E1420B46003430
:1024E00018BF012464F3C7138DF80430DBB213F076
:1024F000840F1CBF43F008038DF804309DF80430AE
:1025000013F0600F1CBF43F010038DF804302AB1A4
:102510009DF8043043F003038DF8043010B19DF8AA
:10252000043003709DF8040002B010BDE03C0020B0
:10253000074B002283F8E12283F8E22283F89623F6
:1025400083F8992383F8982383F89A23FFF7C0BD73
:10255000E03C0020024B1860024B1960704700BF3E
:10256000FC1D0020001E002000F07EBE01F014B90A
:1025700003461D2B73B50C46104619D800220D21B9
:1025800051431C4D4E5D9E420ED129444D78A542CB
:102590000AD18C1C21460B220CF083FF204602B08E
:1025A000BDE870400CF05FBF0132132AE7D102E0B2
:1025B0004FF0FF301CE0102B02D10B210E4A03E03C
:1025C000112B06D10D4A0B2104F1610308F070F8BC
:1025D00004E03BB90A490CF039FF03200B28A8BFDF
:1025E0000B2005E000940B21064A08F061F8F5E79E
:1025F00002B070BDD6070200D1080200D708020061
:10260000CD080200DD08020001292DE9F04705464A
:102610008A4614461F461DDD002616701E704FF0B8
:102620000D0808FB06F8DFF88090294609F1020042
:10263000404452460CF01FFF40B909EB080319F85B
:1026400008205B7822703B70BDE8F0870136132EBE
:10265000E5D103E04FF0FF30BDE8F0872B784E2B3B
:1026600019D16B780235613B3B700D482946022237
:102670000CF001FF20B9102323700020BDE8F08783
:102680000848294602220CF0F6FE0028F3D1112357
:102690002370BDE8F0876FF00100BDE8F08700BF50
:1026A000D4080200DA080200D607020070B504461A
:1026B0008AB0002870D003780C2B6DD8002124221A
:1026C00001A8374D0CF0AEFA18228DF81120012325
:1026D00095F852228DF805301B0162F386138DF8B0
:1026E0001030638800208DF80E300593FFF7DEFE72
:1026F00063788DF80F0013F0030204D0C3B262F3C5
:1027000001038DF80F302378264E03EB4303334447
:102710005978142006F0F4FD237803EB43021644A5
:10272000B278013B8DF804200B2B2DD8DFE803F0A5
:10273000060B2C23232C232C2C2C2C069DF810303C
:1027400095F84D201BE09DF8103095F84E2062F36F
:1027500003038DF8103001238DF818309DF80E30EA
:102760008DF81A309DF8193063F077036FF38613F4
:102770008DF819300AE09DF8103095F84E2062F37C
:1027800003038DF8103001E00023059301A82169AF
:10279000227B00F091FD00E004200AB070BD00BF74
:1027A000E03C00200009020008B5054B002093F82A
:1027B0002B1093F8292006F083FE002008BD00BFEF
:1027C000E03C002000F0EABA00F086BF08B50548FA
:1027D000054901F001F801F07BF8BDE80840FFF77A
:1027E000E3BF00BFE52101007D21010070B51D465A
:1027F000384B8CB003440CA840F8303D0E46684678
:1028000003A914460CF0CCF9039A0023ADF8083064
:1028100062F30503049A8DF804304FF0000362F36D
:102820000503059A08988DF805304FF0000362F310
:102830000403642290FBF2F102FB11028DF80630D2
:102840000699079B01F01F01013362F3471103F062
:102850000F03C2F3C30262F307138DF807108DF85C
:1028600008302DB1BDF804209DF806302A80AB70E9
:1028700016B1BDF807303380099A9DF8063012B9B9
:1028800043F0E00301E062F347138DF8063083075D
:1028900011D100F26C73642293FBF2F102FB11324E
:1028A0000AB1012308E04FF4C87193FBF1F001FB7A
:1028B0001033002BF5D000239DF8042063F3C712DA
:1028C0008DF8042024B10198BDF808302060A38061
:1028D0000CB070BD0027E25008B500221346FFF788
:1028E00085FF022008BD08B50A4600210B46FFF708
:1028F0007DFF062008BD0000F0B58378027995B011
:102900005C0902F00F020178477803F01F0304937B
:10291000531E01F03F01069307F03F07012346795C
:1029200002910593039708F00FFE204B0BA9034477
:1029300014A840F84C3D0CF033F9109BC6F3050683
:1029400007930023F5B2009366F03F0607231F2D7F
:10295000C8BF354694FBF3F3154EC3EBC303754371
:10296000E61A009B019A93421BDA02A80CF028FA9F
:10297000431914A840F8503D02A968460CF010F91C
:102980000724089BB34208D0059B02A80133059396
:102990000CF016FA013C0090F3D1079B013307932A
:1029A000DFE70448184415B0F0BD00BF0027E2502F
:1029B000803A090000D91DAF70B504460F480D4696
:1029C000FFF79AFF06460E48FFF796FF86420D4B2B
:1029D00007D2266093F89C2293F8A032C2F38012AB
:1029E00006E0206093F8A22293F8A632C2F3801288
:1029F0009B0902B95B422B70002070BD7B3F002019
:102A0000813F0020E03C0020F0B5204B8BB0034418
:102A10000AA80C4640F8283D01A968460CF0C0F809
:102A2000069A2178029D642392FBF3F065F3050179
:102A300003FB102001F0BF016FF3C711657821700F
:102A40000399099F61F30405C1B2521A002F92FB4A
:102A5000F3F22B46D4BF0027012762F3461367F336
:102A6000C7136370049AA378059E62F3040360F3AE
:102A70004713A370E378013666F30303C90861F3D3
:102A800007130420E3700BB0F0BD00BF0027E25035
:102A90002DE9F04F924F99B00F44242200210446B3
:102AA00006A805970CF0BEF8242200210FA80CF010
:102AB000B9F80FAD06A905A806AE0CF071F80FCE57
:102AC0000FC50FCE0FC533680D9A2B6001231293EB
:102AD000022A4FF00003139319DC0C9B33B1022A36
:102AE00015D0062B02D092B9052B10D1149B0FA83C
:102AF000013B14930CF064F9159B7A4A072552F8B0
:102B00002330C3F5B673013393FBF5F51CE00A9B44
:102B10000B2B0DD1099B1C2B0ADD0C9D012D17D011
:102B20001D2B05D0022D12D01F2B01D1032D0ED04D
:102B30000FA80CF045F9159B6A4A52F823500D9BDB
:102B400007225D1B95FBF2F50135EDB200E0012592
:102B50000021242206A80CF065F8002124220FA8E9
:102B60000CF060F805A806A905970CF019F80C9B65
:102B700013B15FFA83FA01E04FF0070A6B1ED9B276
:102B8000002022460193FFF70BFB019B06469E4265
:102B90009DF82C804FF0010017D001462246FFF728
:102BA000FFFA0021002814BF07460727224602200B
:102BB000FFF7F6FA0021814622460320FFF7F0FADC
:102BC000019B83469E4266DA61E051462246FFF74A
:102BD000E7FA002814BF07460727574510D0002101
:102BE00022460220FFF7DCFA00218146224603201C
:102BF000FFF7D6FA574583464DD20020294640E0DC
:102C0000089B0220DAB20292114622460193FFF796
:102C1000C7FA019B81469842039009D00320002106
:102C20002246FFF7BDFA019B834699451ADB32E045
:102C3000079B0F2293FBF2F3591C0320C9B22246D3
:102C40000193FFF7ADFA019B8346834223DB029B8E
:102C50000220591CC9B22246FFF7A2FA039B814603
:102C6000984218DC0AF101010120C9B22246FFF79F
:102C700097FA002814BF0746072757450BD80020AE
:102C8000E9B22246FFF78CFA8542064603DD08F1D9
:102C900001085FFA88F80122002312920FA8CBEBFB
:102CA0000B12139310920F93CDF85080CDF84490EF
:102CB0000CF086F8159B0B4AC6EBC60652F823307B
:102CC0000FA81F443E4412960CF07AF800F12F40F2
:102CD00000F5EE1000F5C85019B0BDE8F08F00BF48
:102CE0000027E250E4080200074BDA8D2AB1196B85
:102CF00012B2114400221963DA85002093F82A10D9
:102D000093F8282006F0DCBBE03C002038B5102208
:102D10000D46002104460BF085FF152006F0F8FA59
:102D20002070152006F0F4FA000A6070162006F0F4
:102D3000EFFAA070162006F0EBFA000AE0701620F9
:102D400006F0E6FA000C2071162006F0E1FA000EFB
:102D50006071172006F0DCFA000AA071172006F057
:102D6000D7FAE0712B6923722B691B0A63722B7BE4
:102D7000C3F30113012B01DC0A340AE06B8AA3724E
:102D80002B7BC3F30113032B09BFEB7C0B34E372E2
:102D90000C34142006F0BCFA207038BD10B504467F
:102DA00008F030F90F4B0122D8610F4BDA712CB1CA
:102DB00023691BB1002019785A7805E00B4B0020DD
:102DC00093F82B1093F8292006F07AFB084B1B6828
:102DD0009847084B1B699847042008F08FFC002097
:102DE00010BD00BF5443002044430020E03C0020BD
:102DF000281002005C1302002DE9F047DAB006F05B
:102E0000EBF9054606F0FCF90128074640F20D8271
:102E10000FA800214FF496720BF004FF0023ADF8C9
:102E200010302B78902B8DF83C3045D1AB786978F9
:102E30008DF85430EA78D807ADF8562001D42C1D0F
:102E400005E028796C1D42EA0022ADF856209E0666
:102E500028D5BDF8562012B10220B4491EE02278D0
:102E600002F00F03042B0FD1611C5006169104F1E0
:102E700011060CD53068AE491790179A184604F120
:102E8000150607F0A7FA02E00220AA4906E0327808
:102E90005B2A01D1721C11E0A749022007F09AFABF
:102EA0000624CCE11694043402312B1B19448DF80E
:102EB00060102E46A84679E06A1C2E4602238DF843
:102EC0003D301368CDF83E305368CDF842309DF860
:102ED0006030083B8DF86030137A8DF84630537AB5
:102EE0008DF84730937A8DF84830D37A8DF8493091
:102EF000DB091EBF137B02F10D048DF84A309DF8EB
:102F0000483008BF02F10C04DB091CBF14F8013B78
:102F10008DF84B3023781393617803EB01239DF8F0
:102F200048101393C1F30111012901DC02340CE0B4
:102F3000A078032903EB0043139301D0033404E08A
:102F4000E178043403EB016313932B1B3B448DF8AE
:102F500060307A4B9DF84200D97D884240F067810D
:102F60009DF84300197E884240F06181BDF83E0023
:102F7000B3F81110884240F05A819DF84000D97C86
:102F8000884240F054819DF84100197D884240F00C
:102F90004E81BDF84410B3F81530994240F0478196
:102FA000BDF8483002F10A08ADF8103096F800A0DC
:102FB000BAF1900F52D1624A042100929DF860301C
:102FC000201F224608F08AFE014630B15D49BDF857
:102FD0005620032007F0FEF9A5E00BAD102228468D
:102FE0000BF020FE152006F093F92870152006F04E
:102FF0008FF9000A6870162006F08AF9A87016206A
:1030000006F086F9000AE870162006F081F9000C37
:103010002871162006F07CF9000E6871172006F062
:1030200077F9000AA871172006F072F99DF854206C
:10303000BDF85630D1072B7244BF1B0A6B72802338
:10304000E8718DE82800404B9DF8602002930DF157
:10305000610021463A4B08F02DFDEAE007AE002161
:10306000102230460BF0DEFD142006F051F93070CE
:10307000152006F04DF97070152006F049F9000A88
:10308000B070162006F044F9F070162006F040F9F2
:10309000000A3071162006F03BF9000C7071162002
:1030A00006F036F9000EB071172006F031F9000A6B
:1030B000F071172006F02CF99DF81130307203F0F2
:1030C0001F03182B18BF042440F0B980142006F009
:1030D0001FF9062818BF9DF810201C4B1CBF02F0DA
:1030E0000F0253F822909DF8102008BFD3F84090AB
:1030F00052061B6C31D59DF860202F44023F023AE6
:1031000086F809A08DF860208DE8480005A8022106
:103110004246C8EB070308F0E6FC05A83946022240
:103120000BF068FDA0B1022489E000BF380902005D
:10313000A209020064090200C5090200E03C002067
:10314000181E0020000A0200ADC701003C1E00202E
:103150009DF86030033B8DF860309DF8607000236F
:10316000043FFFB28DF860702744737206A80421F3
:103170004246CDF800900196C8EB070308F0B3FC77
:1031800006A8394602220BF035FD0028CBD19DF868
:103190001030DB0911D09DF84B209DF860000FAB7B
:1031A000801A1844B91A25300BF033FD9DF86020C1
:1031B0009DF84B30D31A8DF860309DF86020F2B145
:1031C0009DF810301B0712D00BAD28460FA9FFF752
:1031D0009DFD80238DE82800204B9DF86020029300
:1031E0000DF1610021464B4608F064FC04E00DF14E
:1031F000610029460BF00DFD9DF860301C449DF8E0
:103200001030C3F3801373B108F09EF900F07F40D3
:103210005990237903445993627903EB022359931C
:10322000A27903EB0243599303E0032407E005244A
:1032300005E00B4B1B6873B10FA898470BE0094BD7
:103240001D6845B105F0C8FF064605F0D9FF3146B7
:10325000C2B22046A8475AB0BDE8F087ADC701000A
:10326000381E0020801E002003460A4601481946E9
:103270000BF0CFBC181E002013B5074B8DE80300E0
:103280001C78012103F8041B9DE8030083E8030078
:10329000204602B010BD00BF041E002038B5054610
:1032A000FBF763FA05F10C03044693E80300FFF70C
:1032B000E3FF204638BD00002DE9F04FBD4BF3B0D1
:1032C0001F7806460C4693460FB10620DCE1B2F5A6
:1032D000807F00F2D88139464FF4967227A823AD3B
